:020000040800F2
:10000000B80C0020450100085F2D0008EF1600081D
:100010005B2D0008090E0008F93E000800000000F2
:100020000000000000000000000000005D38000833
:100030002910000800000000E934000871390008A8
:100040005F0100085F0100085F0100085F01000810
:100050005F0100085F010008C5130008F5130008E0
:100060005F0100085F0100085F0100085F010008F0
:100070005F0100085F0100085F0100085F010008E0
:100080005F0100085F0100085F0100085F010008D0
:100090005F0100085F0100085F0100085F010008C0
:1000A0005F0100085F0100085F0100085F010008B0
:1000B000D5390008193B00085F0100085F010008FE
:1000C0005F0100085F0100085F0100085F01000890
:1000D0005F010008CD3C0008E93C00085F01000812
:1000E0005F0100085F0100085F0100085F01000870
:1000F0005F0100085F0100085F0100085F01000860
:100100005F0100085F0100085F0100085F0100084F
:100110005F0100085F0100085F0100085F0100083F
:100120005F0100085F0100085F0100085F0100082F
:10013000DFF80CD000F05CFD00480047E56A0008DD
:10014000B80C00200648804706480047FEE7FEE757
:10015000FEE7FEE7FEE7FEE7FEE7FEE7FEE7FEE777
:1001600075390008310100082DE9F0410024061B13
:10017000254671F1000605DA01240027D0EB0700BF
:1001800067EB0101161E73F1000605DA0027D2EBBA
:100190000702012567EB030300F05EFB86460E466F
:1001A00017469C46AC4204D00025D0EB050E65EB0B
:1001B000010624B10020D2EB000760EB030C70466F
:1001C00031463A466346BDE8F081A0F14101192964
:1001D00000D82030704740EA01039B0703D009E0B4
:1001E00008C9121F08C0042AFAD203E011F8013B23
:1001F00000F8013B521EF9D27047D2B201E000F87C
:10020000012B491EFBD270470022F6E710B51346BA
:100210000A4604461946FFF7F0FF204610BD30B5E8
:1002200005462A460B4612F8010B13F8014B08B19C
:10023000A042F8D01CB1002802D06D1CF1E728467E
:1002400030BDCAB2401E10F8011F8A4202D00029F8
:10025000F9D100207047421C10F8011B0029FBD186
:10026000801A704730B504460020034600E05B1C4E
:10027000934203D2E05CCD5C401BF8D030BD10B59A
:10028000044600E0401C0378002BFBD100E0401C3A
:10029000521E04D311F8013B0370002BF7D100214B
:1002A0000170204610BD30B505460020034600E031
:1002B0005B1C934205D2EC5CC85C201A01D1002C77
:1002C000F6D130BD70B5064603F03EFF0468054622
:1002D0000A220021304600F021FB2C6070BDF0B4F2
:1002E00080EA0102D40F4200B2EB410F02D2024673
:1002F000084611464A0042D0C30DDDB2C1F3C752D1
:10030000AD1A202D35DAC1F3160141F4000204B113
:100310005242C5F1200602FA06F12A411044B3EB1D
:10032000D05F23D0C4B1012DA0EBC35009DCF0BCD9
:100330004FF0004202EAC352DBB200F5000000F0C9
:100340002EBB400000F1807000EBC350A0F1807024
:1003500040EAD170490009E0490841EAC071A0EBC8
:10036000C35000F50000400800EBC350F0BC00F0A3
:100370000DBB6142012202EB4101001BF6E7F0BC1C
:10038000704781F00041AAE780F00040A7E780EACB
:10039000010210B502F00043400022D04A001FD0F5
:1003A000010E01EB1261C0F35600C2F3560240F495
:1003B000000042F40002A0FB022000047F39140474
:1003C00000D0401C50EA124001D44000491EC2B285
:1003D0000C0604EBD010401C4008802A02D003E039
:1003E000002010BD20F00100002900DA0020184391
:1003F00010BD30B480EA010202F0004530F0004246
:1004000021F0004013D090B1C30DD40DC2F31601FA
:10041000C0F31600E41A41F4000140F400027D34F8
:10042000914201D3641C00E04900002C02DA30BC88
:10043000002070474FF400000023914201D3891A35
:10044000034340084FEA4101F7D151B1914202D133
:100450004FF0004105E002D24FF0010101E06FF0E2
:10046000010103EBC450284430BC00F08FBA2DE9E1
:10047000FE4F804681EA0300C00F0C46009021F039
:10048000004123F00045B8EB0200A94105D24046E7
:10049000214690461C460B46024623F0004010437E
:1004A00047D0270DC7F30A00C3F30A510290401A40
:1004B000019040286BDAC3F3130040F4801B0098CE
:1004C000924620B10023D2EB030A63EB0B0B019899
:1004D0005946C0F14002504600F0EFF906460D467D
:1004E00050465946019A00F007FA10EB08006141A6
:1004F000002487EA115284EAE7731A4340D0009A35
:1005000062B3019A012A4FEA075215DC001B61EB26
:1005100002014FF0004202EA0752CDE90042001CFE
:1005200041F5801132462B4600F076FA03B0BDE863
:10053000F08F40462146F9E7001B61EB0201001CE9
:1005400041F5801300185B412018A2F5001747EB16
:10055000030140EAD570B6196D4111E06D084FEA0C
:10056000360645EAC0754FEA0752001B61EB0201EF
:10057000001C41F5801149084FEA30000019514133
:1005800032462B4603B0BDE8F04F00F036BA009873
:10059000012240000023D0EB020263EBE0730098DD
:1005A00021464FEAE074B8EB000061EB0401E9E793
:1005B00083F000435BE781F0004158E72DE9FE4FEF
:1005C00081EA030404F0004421F0004100944FF05C
:1005D000000B23F0004350EA01045ED052EA03040A
:1005E0005BD0C3F30A54C1F30A552C44A4F2F3348C
:1005F0000194A0FB0254C1F3130141F48011C3F331
:10060000130343F4801301FB024400FB034E840AEE
:10061000970A44EA815447EA8357A4FB0768029586
:100620008D0A05FB07854FEA932C04FB0C54270524
:10063000029D4FEA065847EA1637B5EB08056EEB00
:10064000070C870E920E47EA811742EA8312A7FB36
:100650000201B6EB0B0164EB00042B0D43EA0C33F3
:100660005E1844EB1C50DA465146E7FB0201C5F325
:1006700013044FEA0B3343EA14534FEA0432019C4C
:1006800043EA0603A4F10C040294009CCDE900B4F3
:1006900000F0C2F903B0BDE8F08F00200146F9E791
:1006A000C10F80EAE0700844CA079623002100F0D9
:1006B00076B996230022114600F071B90EB5C10F2C
:1006C00080EAE0700844CA07002140F233438DE815
:1006D0000E000A460B4600F09FF903B000BD00F083
:1006E000004220F00040C10DC0F3160040F40000AD
:1006F0007F2901DA00207047962903DCC1F19601B9
:10070000C84001E096398840002AF4D04042704742
:1007100020F00040C10DC0F3160040F400007F2916
:1007200001DA00207047962903DCC1F19601C84028
:10073000704796398840704770B5C1F30A5201F08E
:1007400000450024C1F3130140F2FF3341F480114E
:100750009A4201DA002070BD40F233439A42A2F27D
:10076000334203DC524200F0B7F800E090402C43E3
:10077000F1D0404270BD00F0004230F000400AD09D
:10078000C10D01F56071C0F3160042EA0151C208C3
:1007900040071143704700200146704730B5041EE2
:1007A00071F1000404DB4FF00044404264EB0101AE
:1007B000141E73F1000405DB1C464FF00043524247
:1007C00063EB0403994208BF904230BD01F000433F
:1007D00030B421F0004150EA010206D00A0DA2F522
:1007E0006072C1F31301002A02DC30BC00207047A4
:1007F000440F44EAC104C100E01830BC00EBC25011
:1008000000F0C4B8002801DBC0F10040002901DB82
:10081000C1F1004181427047002801DBC0F1004076
:10082000002901DBC1F100418842704730B50B4619
:10083000014600202022012409E021FA02F59D4210
:1008400005D303FA02F5491B04FA02F52844151EE4
:10085000A2F10102F1DC30BD2DE9F05F0546002078
:1008600092469B4688460646814640241BE0284621
:1008700041464746224600F02FF853465A46C01AD2
:10088000914110D311461846224600F016F82D1A51
:1008900067EB01084F4622460120002100F00DF8C9
:1008A00017EB00094E41201EA4F10104DFDC48468D
:1008B00031462A464346BDE8F09F202A04DB203A11
:1008C00000FA02F1002070479140C2F1200320FAA3
:1008D00003F3194390407047202A04DB203A21FAA1
:1008E00002F00021704721FA02F3D040C2F1200249
:1008F0009140084319467047202A06DBCB17203A5F
:1009000041FA02F043EAE07306E041FA02F3D04014
:10091000C2F1200291400843194670472DE9F04783
:1009200091460F4680460446002614F8015B2DB11F
:1009300000F070F90068405DC007F6D12B2D02D0A1
:100940002D2D18D0641E4A463946204600F066F91F
:1009500027B13968A14201D1C7F8008071054FF075
:1009600002040BD54042002803DD03F0EDFB0460D8
:10097000A007BDE8F08746F48066E4E70028F8DACF
:1009800003F0E2FB04606FF00040F2E70029A8BF2B
:100990007047401C490008BF20F00100704710B4A8
:1009A000B0FA80FC00FA0CF050EA010404BF10BC5D
:1009B000704749B1CCF1200421FA04F411FA0CF18A
:1009C00018BF012121430843A3EB0C01CB1D4FEAC3
:1009D00000614FEA102042BF002010BC704700EBBE
:1009E000C35010440029A4BF10BC7047401C4900EC
:1009F00008BF20F0010010BC704710B5141E73F141
:100A0000000408DA401C41F1000192185B411A43CE
:100A100001D120F0010010BD2DE9F04D92469B461A
:100A200011B1B1FA81F202E0B0FA80F220329046C0
:100A3000FFF743FF04460F4640EA0A0041EA0B0174
:100A400053465A46084313D0114653EA010019D0C1
:100A5000C8F140025046FFF73FFF05460E4650469C
:100A600059464246FFF729FF084305D0012004E01C
:100A700020463946BDE8F08D0020054346EAE07681
:100A80002C4337430A986305E40AA0EB08000022D0
:100A9000FD0A44EA47540A3002D500200146E9E73E
:100AA000010510196941DDE9084500196941BDE8F2
:100AB000F04DA2E72DE9F04D81EA030404F0004B6C
:100AC00021F0004514464FF0000A23F0004150EA9F
:100AD000050220D054EA01021DD0C5F30A57024690
:100AE000C5F31303C1F31300C1F30A5640F4801594
:100AF00043F48013A7EB0608101BD64608F2FD3816
:100B000073EB050002D308F1010801E092185B4184
:100B1000B8F1000F03DA00200146BDE8F08D002097
:100B20004FF48011064684460EE0171B73EB050751
:100B300005D3121B63EB050306434CEA010C49087D
:100B40004FEA300092185B4150EA0107EDD152EABA
:100B5000030012D082EA040083EA0501084305D0AD
:100B6000101BAB4106D20122002306E000224FF009
:100B7000004302E06FF0010253101AEB06004CEB49
:100B8000085110EB0A0041EB0B01BDE8F04DFFF7F7
:100B900034BF70B521F0004303430CD0C1F30A55B4
:100BA0000024D5EB040564EB0403D617AD1AB3415A
:100BB00002DB0020014670BD201841EB025170BDE0
:100BC000C1F30A52C1F3130140F2FF3341F4801123
:100BD0009A4202DA00200146704740F233439A42BB
:100BE000A2F2334202DC5242FFF776BEFFF765BE47
:100BF000064C074D06E0E06840F0010394E807006A
:100C000098471034AC42F6D3FFF796FA60A4000878
:100C100080A400080048704704A400082DE9F05F94
:100C200082460078002715468B460AF10104B94632
:100C3000302801D09DB113E014F8010B012778286A
:100C400003D0582801D045B10AE00DB1102D07D1CD
:100C50000027102514F8010B02E0082500E00A2502
:100C60000026B0460EE005FB080005FB06F1012753
:100C700001EB10461FFA80F8B6F5803F00D3B94665
:100C800014F8010B294600F069F80028EBDABBF1F3
:100C9000000F05D00FB1641E00E05446CBF80040B1
:100CA000B9F1000F06D003F04FFA02210160C81E0F
:100CB000BDE8F09F48EA0640FAE72DE9F04D002331
:100CC0001A461B1A8A4103DB00200146BDE8F08D5D
:100CD000C1F30A52C1F3130141F480154FF0000B28
:100CE000D10702D100186D41521E0027044640F280
:100CF000FF11384601EB620A3E468046024600205C
:100D00004FF48011FFF7E8FDC2197141BB1846EBA3
:100D10000100B4EB030C75EB000C04D3E41A65EB93
:100D2000000517460E46241908F101006D41804662
:100D30003428E3DDF91946EB0600091BA84103D26C
:100D40004FF0FF32134601E0002213461BEB070071
:100D500046EB0A51BDE8F04DFFF74FBE3A2800D2EE
:100D6000303820F02002412A01D3A2F13700884216
:100D700001D34FF0FF30704770B58C1810F8015B4D
:100D800015F0070301D110F8013B2A1106D110F824
:100D9000012B03E010F8016B01F8016B5B1EF9D128
:100DA0002B0705D40023521E0DD401F8013BFAE7AE
:100DB00010F8013BCB1A921C03E013F8015B01F819
:100DC000015B521EF9D5A142D8D3002070BD0000AE
:100DD00008B50121082002F099FB4FF48070ADF8AE
:100DE000000010208DF8030003208DF802006946F2
:100DF000044800F0DFFB4FF48071024800F06EFC05
:100E000008BD0000000C014000BFFEE708B501214D
:100E1000042002F07BFB04208DF803000120ADF8D4
:100E2000000003208DF802006946024800F0C2FB72
:100E300008BD00000008014008B50121042002F0AF
:100E400065FB10208DF803000120ADF800000320A1
:100E50008DF802006946024800F0ACFB08BD0000B6
:100E6000000801402DE9F84F00F076F801212448F0
:100E700000F036FC0121224800F027FCA8BB00BF8F
:100E800001211F4800F021FC0028F9D000BF0121FA
:100E90001B4800F01AFC0128F9D000F035F8044690
:100EA00000F032F8054600F02FF8064600F02CF866
:100EB000074600F029F800900121114800F00EFCCF
:100EC000372004F027FC01210D4800F009FC6019CF
:100ED0003044C1190098814207D104F0FF0805F0A1
:100EE000FF0906F0FF0A07F0FF0B0648C0F8008074
:100EF000C0F80490C0F808A0C0F80CB0BDE8F88FA6
:100F0000000801401806002070B5002500BF1CE055
:100F100000BF01210F4800F0D8FB0028F9D01E20A7
:100F200004F0F8FB6006040E01210A4800F0CDFB36
:100F3000012801D144F0010400BF0121054800F05F
:100F4000C4FB0128F9D0681CC5B2082DE0DB20469F
:100F500070BD00000008014010B5FFF76DFF0121D2
:100F60000B4800F0BDFB1E2004F0D4FB0121084813
:100F700000F0B4FB142004F0AFFB0121044800F0A2
:100F8000AFFB1E2004F0C6FBFFF740FF10BD0000C2
:100F90000008014038B5002000906B460122752101
:100FA000682005F0F9FC9DF8000068280ED000BF0D
:100FB0001A48006800F4E06019490843001D174909
:100FC0000860BFF3408F00BF00BFFEE706F026F8C1
:100FD00018BB782006F0FCFDE0B9782005F00CFF86
:100FE000C0B9C82006F0A6FDA0B904F02FFD88B94D
:100FF0000C4805F03CFD044604F082FF50B940F275
:10100000731004F0CBFB28B9C82004F0A9FE08B97E
:1010100007F0FAFE012006F089FC38BD0CED00E077
:101020000000FA05A404002070472DE9F0470646A9
:101030000F46904699460025444631E0791B301B07
:101040004A4600F0F4FD791B30194A4600F0EFFDE6
:101050003919701B4A4600F0EAFD391B701B4A46DD
:1010600000F0E5FD791930194A4600F0E0FD391B22
:1010700070194A4600F0DBFD391970194A4600F034
:10108000D6FD7919301B4A4600F0D1FD6D1C05FBD9
:1010900005F004FB040108FB08F0814200DD641E3A
:1010A000A542CBDDBDE8F08710B580210348FFF7EE
:1010B000ABF800200249088010BD0000380600206F
:1010C000F804002070B50546002400BF00F060F968
:1010D00080B90DA10E48FFF7A2F8044654B13A2199
:1010E0002046FFF7AEF8044614B1641C204670BDDC
:1010F0000020FCE7052004F0EFFA681E85B2002D01
:10110000E4DC0020F3E700004950442C000000001C
:101110003806002008B50121042002F0F7F910205C
:101120008DF803008002ADF8000003208DF8020066
:101130006946344800F03EFA00224FF480413148BD
:1011400000F0D0FAFA2004F0C7FA012291032D48EA
:1011500000F0C8FA4FF4FA7004F0BEFAFFF7A4FFEB
:1011600029A12B4802F078FF03E04FF4FA7004F055
:10117000B3FA28A128A000F0BDF80028F5D128A1D5
:10118000234802F069FF03E04FF4FA7004F0A4FA78
:1011900020A126A000F0AEF80028F5D127A11C4818
:1011A00002F05AFF03E04FF4FA7004F095FA19A127
:1011B00026A000F09FF80028F5D128A1144802F0DD
:1011C0004BFF03E04FF4FA7004F086FA26A128A042
:1011D00000F090F80028F5D12EA10D4802F03CFF58
:1011E00003E04FF4FA7004F077FA2EA12FA000F07C
:1011F00081F80028F5D13849086038A1044802F088
:101200002BFF08BD00100140312E2041540D0A0073
:10121000003801404F4B000041540D0A000000000F
:10122000322E2043574D4F44450D0A0041542B4365
:10123000574D4F44453D310D0A000000332E2041EB
:10124000542B4357444843500D0A000041542B434C
:1012500057444843503D312C310D0A00342E204371
:10126000574A41500D0A0000474F54204950000092
:1012700041542B43574A41503D22434D43432D3364
:101280003031222C223230303230363132220D0AC7
:1012900000000000352E2043495053544152540D54
:1012A0000A000000434F4E4E4543540041542B4327
:1012B000495053544152543D22544350222C2262EF
:1012C000726F6B65722E656D71782E696F222C318D
:1012D0003838330D0A000000B4012242362E204572
:1012E00053503832363620496E6974204F4B0D0A00
:1012F000000000002DE9F04104460D46C8262046B6
:10130000FEF7A9FF87B23A4621460D4802F0C8FE13
:101310000FE000F03DF848B929460A48FEF77FFF84
:1013200020B1FFF7C1FE0020BDE8F0810A2004F0E3
:10133000D3F93000A6F10101CEB2EAD10120F3E7E2
:10134000004400403806002030B589B004460D4600
:10135000FFF7AAFE2A4608A101A802F0BBFE0AA1D7
:1013600001A8FFF7C7FF20B92A462146074802F027
:1013700097FE09B030BD000041542B4349505345FE
:101380004E443D25640D0A003E000000004400402C
:101390000A48008808B901207047084800880849B1
:1013A0000988884203D1002004490880F4E70348F3
:1013B0000088034908800120EEE70000F8040020BF
:1013C000FA04002010B50A2004F086F908480068E5
:1013D00048B90748A430006808B9012000E000209F
:1013E0000349A4310860012000F074F810BD00002A
:1013F0000081214210B50A2004F06EF90D48006802
:10140000A0B90D48006808B9012000E000200A4991
:10141000086000200949086006489C30006808B947
:10142000012000E0002003499C310860022000F008
:1014300051F810BD0481214200000020040000206A
:101440000EB500F0A5FB0121084602F05FF800216F
:10145000012000F08FF80120019000208DF8080095
:101460000C208DF8090001208DF80A0001A800F079
:1014700037F80121084600F07DF802200190002095
:101480008DF808000C208DF8090001208DF80A0065
:1014900001A800F025F806208DF8000002208DF844
:1014A000010001208DF802008DF80300684601F06C
:1014B00057FC07208DF8000002208DF80100002065
:1014C0008DF8020001208DF80300684601F048FC09
:1014D0000EBD00000149086070470000140401407F
:1014E000002123498279002A3AD00A46126803680B
:1014F0009A430B461A600A1D126803689A430B1D33
:101500001A60027911440A6803681A430A60184A8B
:101510000832126803689A43154B08331A601A1D83
:10152000126803689A43124B0C331A604279102AEE
:101530000ED11A1F126803681A430D4B08331A6044
:101540001A1D126803681A43094B0C331A600DE028
:101550000749427911440A6803681A430A6005E0A2
:10156000027911440A6803689A430A6070470000D0
:101570000004014030B500228B071C0F0F2303FA33
:1015800004F20B4B8C1053F824309343084C8D100D
:1015900044F8253023468C1053F824308C07240F50
:1015A00000FA04F42343024C8D1044F8253030BD7A
:1015B000080001402DE9F0410246002500260020E8
:1015C00000230024002791F803C00CF00F0591F8C8
:1015D00003C00CF0100CBCF1000F03D091F802C056
:1015E0004CEA050591F800C0BCF1000F31D0146839
:1015F00000202BE04FF0010C0CFA00F3B1F800C012
:101600000CEA03069E4220D183004FF00F0C0CFA27
:1016100003F7BC4305FA03FC4CEA040491F803C049
:10162000BCF1280F06D14FF0010C0CFA00FCC2F8F7
:1016300014C00AE091F803C0BCF1480F05D14FF087
:10164000010C0CFA00FCC2F810C0401C0828D1D3D1
:101650001460B1F800C0BCF1FF0F34DD5468002005
:101660002EE000F1080C4FF0010808FA0CF3B1F875
:1016700000C00CEA03069E4221D183004FF00F0CFC
:101680000CFA03F7BC4305FA03FC4CEA040491F896
:1016900003C0BCF1280F05D100F1080C08FA0CF8C2
:1016A000C2F8148091F803C0BCF1480F07D100F1D3
:1016B000080C4FF0010808FA0CF8C2F81080401C22
:1016C0000828CED35460BDE8F0810246002093681C
:1016D0000B400BB1012000E00020704741617047D2
:1016E000016170470AB1016100E04161704700BFCC
:1016F000FEE770B505460E46002400F0F7F82846D0
:1017000000F0BCF8641C00F049F9304600F0B6F86F
:10171000641C00F043F900F0E9F8691CC8B200F05D
:10172000ADF8641C00F03AF9002000F071F80446AE
:1017300000F010F9204670BD10B500200E49086079
:101740000E48006820F070400C49086008460068A8
:1017500040F04050086000200949C1F89C0100F0A9
:1017600011F801200449086000F00CF80020044939
:10177000C1F8980110BD000098812142000C014081
:101780000080214210B5022003F0C4FF10BD00000C
:1017900008B50121082001F0B9FEC020ADF8000015
:1017A00010208DF8030003208DF8020069460448DC
:1017B000FFF700FFC0210248FFF792FF08BD0000BD
:1017C000000C014010B500200E4908600E4800686A
:1017D00020F070400C4908600846006840F0405016
:1017E000086001200949C1F89C01FFF7CBFF0120E7
:1017F00004490860FFF7C6FF00200449C1F89801BA
:1018000010BD000098812142000C0140008021425F
:1018100070B5054600241648006820F07040144951
:1018200008600846006840F000400860002614E0A8
:10183000002010490860FFF7A5FF01200E49C1F8FC
:1018400098016006040E0B487C38006808B1601CE3
:10185000C4B2FFF797FF701CC6B2082EE8DB15B9BB
:10186000FFF7B0FF01E0FFF767FF204670BD000003
:10187000000C0140988121420080214270B504464D
:101880001748006820F07040154908600846006855
:1018900040F04050086000201249086000251BE01D
:1018A000E00920B101200F49091D086003E0002074
:1018B0000C49091D08606006040EFFF763FF012054
:1018C00008490860FFF75EFF00200749C1F898014A
:1018D000FFF758FF681CC5B2082DE1DB70BD0000A2
:1018E000000C0140988121420080214210B5164829
:1018F000006820F07040144908600846006840F015
:10190000405008600120114908601148D0F81C01BE
:1019100008B9002010BD01200C49091F0860FFF71D
:1019200031FF00200A49C1F89C010848803800684E
:1019300008B10020EEE7FFF725FF00200349091F4B
:1019400008600120E6E70000000C01409C81214274
:101950000080214210B50E48006820F070400C490C
:1019600008600846006840F04050086000200949BF
:1019700008600949C1F89C01FFF704FF01200549EF
:1019800008600549C1F89C01FFF7FCFE10BD00008E
:10199000000C0140988121420080214210B50024B2
:1019A0001548006820F07040134908600846006838
:1019B00040F000400860012010490860FFF7E2FE97
:1019C00001200F49C1F89801FFF7DCFE09E0601C17
:1019D000C4B2642C03DDFFF7BDFF002010BDFFF78C
:1019E000D1FE0648803800680028F0D10349091F5D
:1019F00008600120F2E70000000C01409C812142B8
:101A00000080214270B505460E46144631462846F0
:101A1000FFF76FFE2070012070BDF8B506460F4637
:101A200014461D466A4639463046FFF7EBFF2DB196
:101A30000120A0409DF80010084305E00120A040CF
:101A40009DF8001021EA0000C0B200909DF800202F
:101A50003946304600F036F8F8BD2DE9F843074620
:101A6000884614461D46089E6A4641463846FFF79A
:101A7000C9FF28B3601CFF2101FA00F0C4F108017E
:101A80002944491EFF220A41104300F0FF09C5F115
:101A9000080006FA00F0C6B2C4F1070006419DF83E
:101AA000000000EA090000909DF80000304300901B
:101AB0009DF800204146384600F004F8BDE8F88360
:101AC0000020FBE737B504460D4602AB012229464C
:101AD000204600F001F83EBD2DE9F04180460D465C
:101AE00016461F460024FFF701FF4046FFF7C6FEDB
:101AF000FFF754FF2846FFF7C1FEFFF74FFF00BF77
:101B000006E0385DFFF7BAFEFFF748FF601CC4B27D
:101B1000B442F6DBFFF71EFF0120BDE8F0810000B4
:101B20004CF6CC400149086070470000003000408E
:101B300010B500F013F810BD70B505460C4645F21F
:101B4000555000F01FF8284600F010F8204600F02D
:101B500013F800F003F8FFF7E3FF70BD4AF6AA2080
:101B600001490860704700000030004001494860AA
:101B70007047000000300040014988607047000055
:101B8000003000400149086070470000003000400C
:101B900008B50121082001F0B9FC0120ADF80000D2
:101BA00048208DF8030069460648FFF703FD022030
:101BB000ADF8000048208DF8030069460148FFF7A2
:101BC000F9FC08BD000C01402DE9F04107460C4628
:101BD00015461E462A2000F0A9F9384600F086F97D
:101BE000284600F083F92B2000F0A0F9204600F0F1
:101BF0007DF9304600F07AF92C2000F097F9BDE825
:101C0000F08170B50646EF231A4600210846FFF71B
:101C1000DBFF002408E0002503E0304600F066F911
:101C20006D1CF02DF9D3641CF02CF4D370BD70B58D
:101C300004460D4616462B46224629462046FFF707
:101C4000C3FF304600F052F970BD00002DE9F84F97
:101C500005460F4616469A46DDF828B00095E02D59
:101C600001D8E02F01D9BDE8F88FA6F12000C6B257
:101C700007F10F03EA1D39462846FFF7A5FFBAF121
:101C8000000F25D1002420E004EB0610214911F8B3
:101C900000904FF0000811E009F0010018B158461B
:101CA00000F024F903E01C48006800F01FF94FEA37
:101CB00069096D1C08F1010000F0FF08B8F1080F78
:101CC000EADB009D7F1C601CC4B2102CDCDB1FE033
:101CD00000241BE004EB06100E4911F800904FF0B1
:101CE00000080EE009F0010028B1391905EB0800E1
:101CF0005A46FFF79CFF4FEA690908F1010000F01E
:101D0000FF08B8F1080FEDDB601CC4B2102CE1DB5A
:101D100000BFA8E7C28F0008740400202DE9F05F1F
:101D200081468A4693461C46102C00D1194D202C22
:101D300000D1194D0AEB0400431E09EB0400421EBA
:101D400051464846FFF740FF04FB04F0C11700EB83
:101D50005171C1F3C7080BFB0855002715E0002699
:101D60000EE028780121B140084018B10A9800F02F
:101D7000BDF803E00948006800F0B8F8701CC6B26E
:101D8000082EEEDB6D1C781CC7B24745E7DBBDE8CB
:101D9000F09F000034020020340000207404002072
:101DA0002DE9F84F06468A4690461D46DDF82890F4
:101DB0004FF0000B00242FE0281B401EC1B20A2068
:101DC00005F0AFFFB8FBF0F00A21B0FBF1F201FB28
:101DD0001207BBF1000F10D1681EA0420DDD57B9EC
:101DE000082101FB0460002320225146CDF8009019
:101DF000FFF72CFF0EE04FF0010B07F13001CAB2E4
:101E0000082101FB046000235146CDF80090FFF744
:101E10001DFF00BF601CC4B2AC42CDDBBDE8F88F33
:101E20002DE9F84F06468A4617461C46DDF82880FD
:101E30001D493846FEF7ABFA0090FEF769FC834671
:101E400000252CE0601B401EC1B20A2005F069FF8E
:101E5000BBFBF0F00A21B0FBF1F201FB1209A01E5E
:101E6000A8420ED1A11E082202FB016000232E22EF
:101E70005146CDF80080FFF7E9FE681CC5B2601C32
:101E8000C4B209F13001CAB2082101FB0560002388
:101E90005146CDF80080FFF7D9FE681CC5B2A542B7
:101EA000D0DBBDE8F88F00000000C842F8B5054659
:101EB0000E4614461F4615E0E02D01D900251036C8
:101EC000E02E06D90020054606464FF47840FFF77D
:101ED00098FE00972278002331462846FFF7B6FE89
:101EE0000835641C20780028E6D1F8BD10B50446FA
:101EF0004FF400410548FFF7F3FBC4F3072000F05F
:101F000023F8E0B200F020F810BD0000000C014002
:101F100010B504464FF400410348FFF7E1FB2046AB
:101F200000F012F810BD0000000C014010B504468E
:101F30004FF400410348FFF7D1FB204600F004F8BE
:101F400010BD0000000C014070B504464FF48051F4
:101F50001448FFF7C3FB00251BE04FF40051114864
:101F6000FFF7BCFB04F0800028B14FF480410D481E
:101F7000FFF7B6FB04E04FF480410A48FFF7AEFBE1
:101F80004FF400510748FFF7ABFB6006040E681CD6
:101F9000C5B2082DE1DB4FF480510248FFF7A0FBEA
:101FA00070BD0000000C014008B50121102001F0B7
:101FB000ADFA4FF40050ADF8000010208DF803008A
:101FC00003208DF8020069460448FFF7F3FA4FF446
:101FD00000510248FFF784FB08BD000000100140DB
:101FE00008B50121082001F091FA4FF40070ADF816
:101FF000000010208DF8030003208DF802006946D0
:102000000448FFF7D7FA4FF400710248FFF766FB68
:1020100008BD0000000C014008B50121082001F0B6
:1020200075FA4FF47C40ADF8000010208DF80300E5
:1020300003208DF8020069468348FFF7BBFA4FF48E
:102040007C418148FFF74CFB4FF400617E48FFF76D
:1020500045FB142003F040FB4FF400617A48FFF782
:102060003FFB142003F038FB4FF480617648FFF704
:1020700037FB1120FFF75AFF782003F02DFB3620A5
:10208000FFF754FF0020FFF743FF3A20FFF74EFF12
:102090005520FFF73DFFB220FFF748FF1F20FFF755
:1020A00037FF1F20FFF734FF0020FFF731FF3320F9
:1020B000FFF72EFF3320FFF72BFFB720FFF736FF88
:1020C0001220FFF725FFBB20FFF730FF3520FFF779
:1020D0001FFFC020FFF72AFF2C20FFF719FFC220A7
:1020E000FFF724FF0120FFF713FFC320FFF71EFFB8
:1020F0001520FFF70DFFC420FFF718FF2020FFF782
:1021000007FFC620FFF712FF1320FFF701FFD020C3
:10211000FFF70CFFA420FFF7FBFEA120FFF7F8FE5E
:10212000D620FFF703FFA120FFF7F2FEE020FFF724
:10213000FDFEF020FFF7ECFE0620FFF7E9FE0D2084
:10214000FFF7E6FE0B20FFF7E3FE0A20FFF7E0FEB5
:102150000720FFF7DDFE2E20FFF7DAFE4320FFF712
:10216000D7FE4520FFF7D4FE3820FFF7D1FE14201C
:10217000FFF7CEFE1320FFF7CBFE2520FFF7C8FEAA
:102180002920FFF7C5FEE120FFF7D0FEF020FFF782
:10219000BFFE0720FFF7BCFE0A20FFF7B9FE0820AC
:1021A000FFF7B6FE0720FFF7B3FE2320FFF7B0FED0
:1021B0002E20FFF7ADFE3320FFF7AAFE4420FFF7E5
:1021C000A7FE3A20FFF7A4FE1620FFF7A1FE172076
:1021D000FFF79EFE2620FFF79BFE2C20FFF798FEC0
:1021E000E420FFF7A3FE1D20FFF792FE0020FFF77B
:1021F0008FFE0020FFF78CFE2120FFF797FE2A209C
:10220000FFF794FE0020FFF783FE0020FFF780FE1B
:102210000020FFF77DFEEF20FFF77AFE2B20FFF76F
:1022200085FE0020FFF774FE0020FFF771FE0020FE
:10223000FFF76EFEEF20FFF76BFE2C20FFF776FE18
:102240002920FFF773FE08BD000C014010B50220E5
:1022500000F010F8032000F021F8002000F014F83E
:10226000002000F037F8002000F02BF8002000F0EC
:102270001FF810BD38B50446032302226B21D0207D
:102280000094FFF7EAFB38BD38B504460223042268
:102290001C21D0200094FFF7E0FB38BD38B5044680
:1022A000022304221B21D0200094FFF7D6FB38BD67
:1022B00010B50446234601223721D020FFF7ADFB9D
:1022C00010BD10B50446234605226A21D020FFF731
:1022D000A4FB10BD10B50446234606226B21D02076
:1022E000FFF79BFB10BD10B50446207B012802D1EF
:1022F000206804F00FF8002020606060A060207368
:1023000010BD0246002301230DE002F07F0008709B
:10231000D2092AB1087840F080000870491C01E019
:10232000184670475B1C042BEFDD4FF0FF30F8E7D9
:1023300070B504460E460025206898B90120207328
:10234000304604F023FD20602068E0B1002060608A
:10235000A66003E00020216848556D1CA068A842D3
:10236000F8D810E00220207303E0002021684855CF
:102370006D1CA068A842F8D800206060A068B04238
:1023800001D20020206070BD2DE9FF4F83B082464E
:102390008B469146159C0025002002900F27019046
:1023A0004846FDF758FF0FFA80F8B9F1000F03D146
:1023B000012007B0BDE8F08F08F10200384487B271
:1023C000109808B145F00205129878B145F004055F
:1023D0001298FDF740FFC0B202901398FDF73BFF43
:1023E00001460298001D0844384487B2119820B174
:1023F000012804D0022808D104E000BF07E045F01E
:102400000C0504E045F0140501E00220D1E700BF0F
:10241000149808B145F02405BAF1000F02D0BBF1C1
:10242000000F01D10320C4E745F0C0055046FDF779
:1024300012FF06465846FDF70EFF3044001D384493
:1024400087B239462046FFF773FF206808B9042099
:10245000AFE739462068FDF7D7FE10216268501CAF
:10246000606020688154D4E90023D118781FFFF7F9
:1024700048FF00B201900198002804DA2046FFF7D7
:1024800032FF052095E761680198084460600021EB
:102490006268501C60602068815404216268501C8E
:1024A0006060206881544D216268501C6060206823
:1024B000815451216268501C60602068815454210D
:1024C0006268501C6060206881546268501C6060C3
:1024D0002068815404216268501C60602068815427
:1024E0006168481C6060206845540698010A62686B
:1024F000501C6060206881540698C1B26268501C0C
:10250000606020688154C8F307216268501C6060D5
:10251000206881546268501C6060206800F8028066
:10252000D4E90012881842464946FDF7A8FE6068C3
:102530004044606005F00400B8B30026139808B961
:1025400038A013901298FDF786FE86B2310A6268B1
:10255000501C6060206881546268501C6060206874
:102560008654D4E90012881832461299FDF787FE86
:102570006068304460601398FDF76DFE86B2310AE2
:102580006268501C6060206881546268501C606002
:1025900020688654D4E90012881832461399FDF752
:1025A0006EFE60683044606000BF05F08000C8B116
:1025B0005046FDF750FE86B2310A6268501C6060DA
:1025C000206881546268501C606020688654D4E999
:1025D0000012881832465146FDF751FE60683044BB
:1025E000606000BF05F04000C8B15846FDF733FEFB
:1025F00086B2310A6268501C60602068815462684B
:10260000501C606020688654D4E900128818324655
:102610005946FDF734FE60683044606000BF00201A
:10262000C7E60000000000002DE9FF4F83B083469D
:1026300017469946139C0025002600200290019021
:102640008046BBF1000F03D1012007B0BDE8F08F39
:1026500000260AE00498805D232803D00498805D5A
:102660002B2801D10220F0E7761C0498805D002819
:10267000F0D148F03008119808B148F0010806EB95
:102680000900851C109820B1012804D002280AD125
:1026900005E000BF09E048F00208AD1C05E048F085
:1026A0000408AD1C01E00320CFE700BF8FB33878EA
:1026B000022821D14FF0000A00BF50460AF1010A5A
:1026C000385C7D28F9D1AAF1030A0AF107000290CB
:1026D0000298A9EB000AE81CA0EB0A012046FFF7CC
:1026E00027FE206808B90420AFE7EA1CA2EB0A0124
:1026F0002068FDF789FD19E0691D2046FFF718FEE7
:10270000206808B90420A0E7691D2068FDF77CFD5A
:102710000CE0FFE7691D2046FFF70AFE206808B9B4
:10272000042092E7691D2068FDF76EFD6168481C72
:102730006060206800F80180D4E900028118284612
:10274000FFF7DFFD01900198002804DA2046FFF72B
:10275000CAFD052079E76168019808446060C6F306
:1027600007216268501C6060206881546268501CB8
:10277000606020688654D4E90012881832460499B3
:10278000FDF77DFD606830446060109860B14FEAED
:102790001B216268501C6060206881546268501C74
:1027A0006060206800F802B0C7B1387802280BD109
:1027B000D4E9001288183946029AFDF70CFD6168C9
:1027C00002980844606009E0D4E9001288184A467B
:1027D0003946FDF700FD606848446060002034E73A
:1027E00070B505460C4604212046FFF7A1FD206880
:1027F00008B9012070BD70216268501C60602068BB
:10280000815402216268501C606020688154291242
:102810006268501C6060206881546268501C60606F
:10282000206885540020E5E770B505460C46042174
:102830002046FFF77DFD206808B9012070BD6221A8
:102840006268501C60602068815402216268501CDC
:1028500060602068815429126268501C60602068A2
:1028600081546268501C6060206885540020E5E750
:102870002DE9FF5F8046174699460E9C0026B2461A
:10288000B3460025B8F1000F03D1012004B0BDE824
:10289000F09F0BE057F8250008B90220F6E757F83B
:1028A0002500FDF7D8FC0644681CC5B24D45F1DB98
:1028B00009EB4900801C00EB060A0AF105012046DD
:1028C000FFF736FD206808B90320DFE78221626840
:1028D000501C606020688154D4E900028118504681
:1028E000FFF70FFD0FFA80FBBBF1000F04DA204663
:1028F000FFF7F9FC0420C9E76068584460604FEABC
:1029000018216268501C6060206881546268501C05
:102910006060206800F80280002524E057F8250058
:10292000FDF799FC0646C6F307216268501C6060FB
:10293000206881546268501C606020688654D4E925
:102940000023D01857F825103246FDF798FC606830
:10295000304460600198C1B26268501C60602068B9
:102960008154681CC5B24D45D8DB00208EE7F0B518
:1029700004460D462646012300201060002114E085
:10298000775C07F07F07106807FB03001060705C3E
:1029900000F0800008B9481CF0BDDB01B3F5001F52
:1029A00002D36FF00100F7E7491CA942E8DB4FF0C2
:1029B000FF30F1E72DE9F84380460C4615461E46E8
:1029C0002F2108F10600FDF73CFC0746002000908F
:1029D00017B90120BDE8F8837F1C6A46042108F17D
:1029E0000100FFF7C4FF252004F0D0F92060206823
:1029F00008B90220EEE725212068FDF705FC242216
:102A000039462068FDF7E7FB243700982C383080E2
:102A10003188481C04F0BAF92860286820B9206879
:102A200003F078FC0320D5E73288511C2868FDF7B5
:102A3000EBFB328839462868FDF7CDFB0020C9E75B
:102A400001464878022801D001207047887810B1EB
:102A50008878012801D1C878F7E7FF20F5E7000062
:102A60002DE9FC5F81460D4614461E46DDE90C8BC0
:102A700099F8000000F00F0A002001900AF0080009
:102A80000090CAF341008BF8000001AA042109F16B
:102A90000100FFF76CFF4844471C0198022802D34D
:102AA0000AF0010010B1FF20BDE8FC9F787839786A
:102AB00040EA012020802088801C0199884201D9A9
:102AC000FF20F1E754A1B81CFDF7A9FB08B10F20C6
:102AD000EAE79BF8000020B101283DD0022877D119
:102AE0003BE0009808B1FF20DEE72188481C04F095
:102AF0004DF92860286808B9FF20D5E72288511CC5
:102B00002868FDF781FB2288B91C2868FDF763FB64
:102B10000198801E2188401AA8F80000B8F800101B
:102B2000481C04F033F93060306820B9286803F09D
:102B3000F1FBFF20B8E7B8F80020511C3068FDF722
:102B400063FBB8F80020B4F800C0BB1C0CEB030119
:102B50003068FDF740FB4FE000BF2088801C0199E2
:102B6000884201D9FF209FE72088C01C395C20885B
:102B7000801C385C41EA00210E9801800E9808B94B
:102B8000FF2091E72188481C04F000F9286028689C
:102B900008B9FF2088E72288511C2868FDF734FB1C
:102BA0002288B91C2868FDF716FB0198001F2188B0
:102BB000401AA8F80000B8F80010481C04F0E6F825
:102BC0003060306828B9286803F0A4FBFF206BE769
:102BD00010E0B8F80020511C3068FDF715FBB8F87C
:102BE0000020B4F800C03B1D0CEB03013068FDF77A
:102BF000F2FA01E0FF2057E700BF2B212846FDF73E
:102C000020FB20B923212846FDF71BFB08B1FF203C
:102C10004AE7002048E70000246372657100000065
:102C200001464878022801D001207047887820B9F1
:102C3000C8780A2801D10020F7E70120F5E701460E
:102C40004878022801D001207047887820B9C878D8
:102C50000A2801D10020F7E70120F5E7014648786E
:102C6000022801D001207047887820B9C8780A2846
:102C700001D10020F7E70120F5E70246507802284D
:102C800001D0012070479078B0EB112F05D1D0789A
:102C9000CBB2984201D10020F4E70120F2E7000016
:102CA000F8B50446FF2720780511012D01DB0E2D14
:102CB00001DD3846F8BD032D24D1002000906A467E
:102CC0000421601CFFF753FE2044461C0098022894
:102CD00003D3207800F0010008B1FF20EAE7707804
:102CE000317840EA0120801C0099884201D9FF20F8
:102CF000E0E706A1B01CFDF792FA08B10F2700E04B
:102D0000032700E02F463846D4E7000024637265AD
:102D1000710000000146FF208A78A2B9CA78142AFF
:102D200011D10A7932B1012A05D0022A04D0802AB1
:102D300006D103E000BF00BF002003E0012001E056
:102D4000022000BF00BF7047014601208A781AB9EF
:102D5000CA781E2A00D10020704700BFFEE77047E6
:102D600070B5002100230F22C47804B3154C2468E9
:102D700004F4E064C4F5E064210AC1F10403CA402C
:102D8000447804FA03F184781440214309010E4C7D
:102D90000678A155047804F01F050124AC4005789D
:102DA0006D11AD0005F1E025C5F8004109E004789A
:102DB00004F01F050124AC40044D0678761145F857
:102DC000264070BD0CED00E000E400E080E100E092
:102DD00002490143024A1160704700000000FA05F1
:102DE0000CED00E030B58BB0002007900890099002
:102DF0000A90012530A032A333A235A100904048AB
:102E000001F02AF907A8002102910391CDE90410ED
:102E100000912B0228A2019129A12BA0FFF7B4FA5F
:102E2000002842D1089A91B20798FEF78DFAFA204D
:102E3000FEF748F90446002C33D02046FFF730FF58
:102E400002282ED12046FFF7FBFD062823D2DFE81B
:102E500000F003090E13181D2AA1294801F0FCF8FF
:102E600000251DE02CA1264801F0F6F818E031A15C
:102E7000234801F0F1F813E037A1214801F0ECF804
:102E80000EE03DA11E4801F0E7F809E043A11C480F
:102E900001F0E2F804E04CA1194801F0DDF800BFB0
:102EA00000BF07A8FFF71FFA03E04EA1144801F086
:102EB000D3F828460BB030BD3536313638333900BB
:102EC0007465737400000000373732343700000037
:102ED0004F6E654E65745F4465764C696E6B0D0A86
:102EE00050524F49443A2025732C09415549463ADE
:102EF0002025732C0944455649443A25730D0A0090
:102F000000380140546970733A09C1ACBDD3B3C9EC
:102F1000B9A60D0A000000005741524E3A09C1AC53
:102F2000BDD3CAA7B0DCA3BAD0ADD2E9B4EDCEF31D
:102F30000D0A00005741524E3A09C1ACBDD3CAA791
:102F4000B0DCA3BAB7C7B7A8B5C4636C69656E74C3
:102F500069640D0A000000005741524E3A09C1ACA5
:102F6000BDD3CAA7B0DCA3BAB7FECEF1C6F7CAA7D5
:102F7000B0DC0D0A000000005741524E3A09C1ACC6
:102F8000BDD3CAA7B0DCA3BAD3C3BBA7C3FBBBF2F4
:102F9000C3DCC2EBB4EDCEF30D0A00005741524E34
:102FA0003A09C1ACBDD3CAA7B0DCA3BAB7C7B7A8AA
:102FB000C1B4BDD328B1C8C8E7746F6B656EB7C71D
:102FC000B7A8290D0A0000004552523A09C1ACBD0C
:102FD000D3CAA7B0DCA3BACEB4D6AAB4EDCEF30D53
:102FE0000A0000005741524E3A094D5154545F5067
:102FF00061636B6574436F6E6E65637420466169CF
:103000006C65640D0A00000070B588B005460C467A
:103010000020049005900690079023462A4610A1B0
:10302000174801F019F82046FDF715F9064604A8DF
:103030000121002200923346CDE90121039022466E
:1030400029460A20FFF7F0FA38B9059A91B2049898
:10305000FEF77AF904A8FFF746F908B070BD000042
:103060005075626C69736820546F7069633A2025EB
:10307000732C204D73673A2025730D0A0000000061
:10308000003801402DE9F04F8FB0814600200B90B1
:103090000C900D900E900A90099008900790804631
:1030A00006900026002482464846FFF7F9FD804638
:1030B000A8F103000D2872D2DFE800F01C727B95A6
:1030C000B1D6BAD6C8D6D6D6070007AB0AAA09A980
:1030D0004846FFF76FFC06465EB9BDF81C0000903D
:1030E0007BA18448DDE9092300F0B6FF0BA8FFF7B8
:1030F000FAF8BCE0804806A907AA0AABCDE900218E
:10310000029008AA09A94846FFF7AAFC0646002E25
:1031100044D1BDF81C000A99CDE90010BDF820305B
:1031200076A17448099A00F097FF0A9802F020FAF5
:10313000074647B902F0F6F983465A467EA16D4824
:1031400000F08AFF27E081A1384602F0F1F905007E
:103150000DD0686928B101207E4908607E49086069
:1031600005E001207B49086000207B4908607BA1C5
:10317000384602F0DDF905000DD0686930B1012054
:103180007849086000207849086004E0002075490B
:10319000086075490860384602F098F967E063E016
:1031A0004846FFF73DFD18B970A1524800F054FFA2
:1031B0005DE04846FFF752FDA0B974A14D4800F00C
:1031C0004BFF0BA90A20FFF72FFB58B975A14948FF
:1031D00000F042FF0C9A91B20B98FEF7B5F80BA8DD
:1031E000FFF781F843E0444801884846FFF745FD72
:1031F000A0B972A13F4800F02FFF0BA90A20FFF7EA
:10320000EFFA58B973A13B4800F026FF0C9A91B22F
:103210000B98FEF799F80BA8FFF765F827E04846EA
:10322000FFF70DFD18B972A1324800F015FF1EE03E
:103230004846FFF76FFD20B973A12E4800F00CFF40
:1032400003E078A12B4800F007FF10E04846FFF7A5
:103250007BFD20B97AA1274800F0FEFE03E07FA1A4
:10326000244800F0F9FE02E04FF0FF3600BF00BF37
:10327000FDF71AFF701C10B90FB0BDE8F08F7D216B
:103280000A98FCF7DEFF0446A4B1701C90B1641CE0
:1032900006E014F8012B50460AF1010A03A90A546A
:1032A0002078302802DB20783928F2DD03A8FDF7EA
:1032B00009F88246B8F10F0F02D0B8F1030F05D11B
:1032C000099803F027F80A9803F024F800BFD3E721
:1032D000636D6469643A2025732C207265713A200D
:1032E00025732C207265715F6C656E3A2025640D24
:1032F0000A00000000380140FC040020746F70696F
:10330000633A2025732C20746F7069635F6C656E5F
:103310003A2025642C207061796C6F61643A202515
:10332000732C207061796C6F61645F6C656E3A20FC
:1033300025640D0A000000004552524F522062657C
:10334000666F7265205B25735D0A00004C45445F23
:103350005357000010000020A481214242454550EF
:103360005F53570000000020040000205469707370
:103370003A094D515454205075626C69736820535A
:10338000656E64204F4B0D0A000000005469707395
:103390003A09526576205075626C697368526563AC
:1033A0000D0A0000546970733A0953656E64205029
:1033B00075626C69736852656C0D0A0054697073AC
:1033C0003A09526576205075626C69736852656C73
:1033D0000D0A0000546970733A0953656E642050F9
:1033E00075626C697368436F6D700D0A00000000B0
:1033F000546970733A09526576205075626C69732E
:1034000068436F6D700D0A00546970733A094D512D
:10341000545420537562736372696265204F4B0D7B
:103420000A000000546970733A094D5154542053F6
:103430007562736372696265204572720D0A0000DD
:10344000546970733A094D51545420556E53756246
:10345000736372696265204F4B0D0A005469707383
:103460003A094D51545420556E5375627363726915
:103470006265204572720D0A0000000070B586B0CA
:1034800004460D460026002002900390049005900B
:1034900007E054F826200DA1124800F0DDFD701C55
:1034A000C6B2AE42F5DB02A82B46224600210090B0
:1034B0001420FFF7DDF938B9039A91B20298FDF7AD
:1034C00043FF02A8FEF70FFF06B070BD537562738D
:1034D000637269626520546F7069633A2025730DC9
:1034E0000A000000003801407047000029B1064A78
:1034F000D2690243044BDA6104E0034AD269824391
:10350000014BDA61704700000010024029B1064A01
:1035100092690243044B9A6104E0034A9269824330
:10352000014B9A61704700000010024030B5002145
:103530000022002400232D4D6D6805F00C0121B1FF
:10354000042905D0082923D105E0294D056022E092
:10355000274D05601FE0254D6D6805F47012234D61
:103560006D6805F48034022505EB92421CB9214DAB
:10357000554305600BE01D4D6D6805F400351DB128
:103580001C4D5543056002E0194D5543056002E0AE
:10359000174D056000BF00BF144D6D6805F0F001C8
:1035A0000909154D6B5C0568DD4045600F4D6D6880
:1035B00005F4E061090A104D6B5C4568DD408560EB
:1035C0000A4D6D6805F46051C90A0B4D6B5C456886
:1035D000DD40C560054D6D6805F44041890B074D20
:1035E0006B5CC568B5FBF3F5056130BD00100240AA
:1035F00000127A0000093D00E4040020F4040020D9
:103600002DE9F04F91B00446894692460EA88B49A9
:103610000FAB0AAACDE9001089498A4802F022FAC4
:103620008648008800F4807000287DD00A98FDF755
:1036300037F805464FF09D41FCF7DBFE82490860F4
:103640000B98FDF72DF805464FF09D41FCF7D1FE94
:103650007E4908600C98FDF723F805464FF09D4120
:10366000FCF7C7FE7A4908600D98FDF719F8054682
:103670004FF09D41FCF7BDFE764908607248016835
:103680004FF08040FCF783FE059071480168059873
:10369000FCF77DFE83466D4801684FF04040FCF723
:1036A00076FE05906B4801680598FCF770FE594658
:1036B0000690FCF714FE0790FDF75DF8CDE90801D0
:1036C00001F082FA07464FF06632634BFCF776FF53
:1036D0000546FDF77BF820605D4801684FF08040AB
:1036E000FCF755FE02905A4801680298FCF74FFE1D
:1036F0008346564801684FF04040FCF748FE029070
:10370000524801680298FCF742FE59460390FCF7C4
:1037100038FE80464FF07E51FCF7E1FD0746FDF78D
:103720002AF8CDE9060100E084E0474801684FF03F
:103730008040FCF72CFE0390444801680398FCF796
:1037400026FE8046424801684FF08040FCF71FFE8D
:103750000390404801680398FCF719FE83464146F0
:10376000FCF7BDFD0746FDF706F8CDE90401DDE9EC
:10377000062301F071FC4FF06632374BCDE90801AA
:10378000FCF71CFF0546FDF721F8C9F80000314899
:1037900001680068FCF7FBFD04902D480168006893
:1037A000FCF7F5FD0290294801680068FCF7EFFD81
:1037B0000190254801680068FCF7E9FD0090019937
:1037C000FCF78DFD83460299FCF7DBFD039004991D
:1037D000FCF7D7FD0590FCF7CEFF05460E461D48C9
:1037E000016819480068FCF7D2FD04901848016888
:1037F00016480068FCF7CBFD03900499FCF76FFDB9
:103800004FF080410590FCF7C2FD8346FCF7B3FF03
:103810002A463346CDE9060101F01EFC4FF0663220
:103820000D4BCDE90801FCF7C9FE0746FCF7CEFFBA
:10383000CAF8000011B0BDE8F08F0000900400202D
:103840008A040020840400209404002098040020AE
:103850009C040020A004002066A64C40704710B5D0
:1038600000F002F810BD00000CB50020019000909F
:103870003348006840F480303149086000BF304868
:10388000006800F4003000900198401C01900098FE
:1038900018B90198B0F5A06FF1D12948006800F47B
:1038A000003010B10120009001E00020009000984D
:1038B000012843D12348006840F0100021490860E6
:1038C0000846006820F0030008600846006840F0E1
:1038D000020008601A484068194948600846406874
:1038E00048600846406840F4806048600846406888
:1038F00020F47C1048600846406840F4E8104860B6
:103900000846006840F08070086000BF0C480068FE
:1039100000F000700028F9D00948406820F003004A
:10392000074948600846406840F00200486000BF10
:103930000348406800F00C000828F9D10CBD0000D5
:103940000010024000200240042808D14FF0E0217E
:10395000096941F004014FF0E022116107E04FF0E6
:10396000E021096921F004014FF0E0221161704764
:103970007047000010B51348006840F0010011497D
:10398000086008464068104908400E4948600846EB
:1039900000680E4908400B4908600846006820F49A
:1039A000802008600846406820F4FE0048604FF41C
:1039B0001F008860FFF753FF4FF000600449086064
:1039C00010BD0000001002400000FFF8FFFFF6FEEF
:1039D00008ED00E008B50121880700F00AF9002889
:1039E0005DD00121880700F0F5F84FF6FF700090D8
:1039F0002B480223202182683020FEF7D1F94FF6B0
:103A0000FF700090264801232021C2685020FEF755
:103A1000C7F94FF6FF700090214802233021026859
:103A20000846FEF7BDF94FF6FF7000901C480123D1
:103A3000302142685020FEF7B3F94FF6FF700123A2
:103A400000901848402102686020FEF7A9F94FF65F
:103A5000FF70012300901448502102686020FEF797
:103A60009FF94FF6FF700423009010486021026810
:103A70003020FEF7D5F94FF6FF70042300900C4874
:103A8000702102683020FEF7CBF94FF6FF70042357
:103A900000900848802102683020FEF7C1F908BD77
:103AA00018060020000000201000002078040020EC
:103AB0007C040020800400207FB505460C460121CF
:103AC0000846FFF713FDA8B2ADF80800A0B2ADF8A4
:103AD00004000020ADF80A00ADF8060001A94FF07F
:103AE000804000F0A1F801221146900700F092F802
:103AF0001C208DF8000000208DF8010003208DF8B7
:103B0000020001208DF803006846FFF729F9012122
:103B1000880700F062F87FBD10B501210E4800F063
:103B200068F8B8B101210C4800F054F80B4A0C4970
:103B30000C48FFF765FD0C48006840B10B48006871
:103B400008B9012000E000200849086002E00020D8
:103B50000649086010BD00000004004080040020F9
:103B60007C0400207804002000000020A081214275
:103B70007FB505460C4601210220FFF7B7FCA8B22D
:103B8000ADF80800A0B2ADF804000020ADF80A00BE
:103B9000ADF8060001A90E4800F046F801221146D2
:103BA0000B4800F037F81D208DF8000000208DF83C
:103BB000010003208DF8020001208DF80300684603
:103BC000FFF7CEF80121024800F007F87FBD0000A2
:103BD00000040040CA430282704721B1028842F0CB
:103BE0000102028004E002884FF6FE731A40028050
:103BF000704730B50246002000230024158A05EAEC
:103C00000103958905EA010413B10CB1012000E01C
:103C1000002030BD1AB183890B43838102E0838980
:103C20008B43838170470000002202881D4B98421D
:103C30000ED01D4B98420BD0B0F1804F08D01B4BDB
:103C4000984205D01A4B984202D01A4B984204D1A0
:103C50004FF68F731A404B881A43174B984207D080
:103C6000164B984204D04FF6FF431A40CB881A43B4
:103C700002808B8883850B8803850A4B98420BD082
:103C8000094B984208D00E4B984205D00D4B9842F4
:103C900002D00D4B984201D10B7A03860123838217
:103CA00070470000002C0140003401400004004037
:103CB00000080040000C00400010004000140040CC
:103CC00000400140004401400048014010B540F26E
:103CD0002551044800F050F818B12021014800F0A7
:103CE00029F810BD0038014010B540F225510E48AA
:103CF00000F042F8B0B10D480088802802D30020BF
:103D00000A4908800848001D0088C1B20748028897
:103D10000088401C054B188005488154202102482A
:103D200000F008F810BD000000440040F804002036
:103D30003806002001F40072B2F5007F00D100BF08
:103D4000CA430280704721B1828942F400528281C5
:103D500004E082894DF6FF731A4082817047024663
:103D60000020B1F5007F00D100BF13880B400BB1DC
:103D7000012000E00020704770B5024600240023B7
:103D80000025002040F66A16B14200D100BFC1F301
:103D9000421501F01F03012606FA03F3012D02D19B
:103DA0009689334006E0022D02D1168A334001E0A5
:103DB000968A33400C12012606FA04F41688344021
:103DC00013B10CB1012000E0002070BDF0B5034636
:103DD000002400260025002040F66A17B94200D1D1
:103DE00000BF1846C1F3421401F01F06012707FA6D
:103DF00006F5012C01D10C3004E0022C01D1103069
:103E000000E014301AB107682F43076002E007682A
:103E1000AF430760F0BD00002DE9F04786B00546CE
:103E20000E460024A24600BFA1460027B08900B17B
:103E300000BF2F462C8A4CF6FF700440F0880443E4
:103E40002C82AC894EF6F3100440B08831890843C7
:103E5000718908430443AC81AC8A4FF6FF400440AB
:103E6000B0890443AC8201A8FFF760FB1F4887427A
:103E700002D1DDF810A001E0DDF80CA0A88900F463
:103E8000004040B10AEBCA0000EB0A10316849005B
:103E9000B0FBF1F807E00AEBCA0000EB0A1031684A
:103EA0008900B0FBF1F86420B8FBF0F004012009B0
:103EB000642101FB1089A88900F4004040B1322040
:103EC00000EBC900B0FBF1F000F00700044308E08C
:103ED000322000EB09106421B0FBF1F000F00F007C
:103EE00004432C8106B0BDE8F08700000038014093
:103EF000C1F308028280704700BFFEE710B586B0AC
:103F0000044601210420FFF701FB01218803FFF78C
:103F1000FDFA18208DF817004FF40070ADF814006A
:103F200003208DF8160005A91E48FDF743FB042069
:103F30008DF817000002ADF8140003208DF816006C
:103F400005A91848FDF736FB01940020ADF81000D4
:103F50000C20ADF80E000020ADF80C00ADF80A0002
:103F6000ADF8080001A91048FFF756FF01210E48DF
:103F7000FFF7E9FE012240F225510B48FFF726FF2B
:103F800025208DF8000001208DF8030000208DF819
:103F9000010002208DF802006846FEF7E1FE06B03F
:103FA00010BD0000000801400038014010B586B087
:103FB000044601210420FFF7A9FA01214804FFF774
:103FC00095FA18208DF817000420ADF8140003208E
:103FD0008DF8160005A91E48FDF7ECFA04208DF8AF
:103FE00017000820ADF8140003208DF8160005A96D
:103FF0001748FDF7DFFA01940020ADF810000C20FF
:10400000ADF80E000020ADF80C00ADF80A00ADF8D8
:10401000080001A90F48FFF7FFFE01210D48FFF737
:1040200092FE012240F225510A48FFF7CFFE2620DA
:104030008DF8000001208DF8030000208DF80100AC
:104040008DF802006846FEF78BFE06B010BD00003A
:1040500000080140004400400FB430B5CBB0054625
:1040600001AC50A800904FF4947101A8009B4F9AA6
:1040700000F044F8002000900BE014F8011B2846E3
:10408000FFF736FF00BF40212846FFF768FE0028F3
:10409000F9D020780028F0D14BB030BC5DF814FB8B
:1040A0002DE9F04107460C46154600260DE014F8B0
:1040B000011B3846FFF71CFF00BF40213846FFF7C1
:1040C0004EFE0028F9D0701C86B2AE42EFDBBDE890
:1040D000F08100000FB4084B10B504A902AA0398A0
:1040E00000F076F9044602A9002000F013FD2046F6
:1040F00010BC5DF814FB0000154B00087CB5491E90
:104100001C461546CDE90001044B6A462146284667
:1041100000F05EF9009A002111707CBDFF4A000892
:10412000490050EAC12018BF04204A0D18BF40F0D2
:10413000010040F2FF72B2EB515F08BF40F0020095
:10414000012808BF0520704700487047140500206B
:104150002DE9F0414F1E00EBC7010446D1E90001F3
:1041600015461E4637F006020DD02A463346FCF7A8
:1041700025FA7F1E04EBC703D3E90023FCF777F988
:1041800037F00602F1D1022F25D0042F13D0062FCD
:1041900018BFBDE8F0812A463346FCF70FFAD4E990
:1041A0000A23FCF764F92A463346FCF707FAD4E9F8
:1041B0000823FCF75CF92A463346FCF7FFF9D4E9FB
:1041C0000623FCF754F92A463346FCF7F7F9D4E9FD
:1041D0000423FCF74CF92A463346FCF7EFF9D4E9FF
:1041E0000223FCF744F92A463346FCF7E7F9D4E901
:1041F0000023BDE8F041FCF73AB900000022134665
:1042000010460149FCF756BC0000F03F0122FCF7C4
:10421000C0BCFCF72CB90022134610461146FCF72F
:1042200049BC40F2013200204FF0E041FCF7B1BC44
:10423000024A00201107FCF7ACBC000001FDFFFFA3
:1042400002E008C8121F08C1002AFAD1704770475F
:10425000002001E001C1121F002AFBD170470000BD
:104260000149086070470000140500202DE9FF5F38
:10427000DDE90220010DDDF838B0024318D044F624
:104280001050A1F2FF3141430D140F98012820D0A6
:10429000A5EB0B00401C5FEA000A4FF00004474EFC
:1042A000DFF81C91A046504616D5CAF1000728E059
:1042B0000F98012443A2012808D0002100980F9BE9
:1042C000C0E90021C0E90243BDE8FF9F6FEA0B018E
:1042D000F4E7CBF10000DEE7074612E0F80707D06D
:1042E0002246334640464946FCF768F980468946EF
:1042F0002246334610461946FCF760F904460E463E
:104300007F10002FEAD1DDE90201BAF1000F424629
:104310004B4602DAFCF752F901E0FCF7CBFB04460E
:104320000E460022284BFCF739FA03D84FF0FF3035
:10433000014607E00022254B20463146FCF797F85E
:10434000FCF73EFC102409E0002C0ADB0A220023C3
:10435000FCF782FA019B30321A55641E50EA0102C2
:10436000F2D1641C019AC4F1110314440F9A012A7A
:1043700003D0012208430DD10AE0084304D00020F5
:104380004FF0110B0F9080E7A3EB0B056D1E0DE0B6
:104390005B4504DD4FF0000205F1010504E003DA9E
:1043A0004FF00002A5F10105002AECD000980F990A
:1043B000C0E90231C0E9004586E700000000244062
:1043C0000000F03F300000000000F0430000E03F3C
:1043D0002DE9FF4F95B09B468946064600250FE222
:1043E000252877D100242746F84A0121059400E0CA
:1043F000044316F8013F203B01FA03F01042F7D1C5
:1044000030782A2811D06FF02F033078A0F13002D5
:10441000092A16D8059A44F0020402EB820203EB43
:1044200042021044761C0590EFE759F8042B0592E0
:10443000002A03DA504244F40054059044F0020488
:10444000761C30782E2816D116F8010F44F004049B
:104450002A280DD06FF02F023078A0F13003092BFD
:1044600009D807EB870302EB4303C718761CF3E771
:1044700059F8047B761C30786C280FD006DC4C2869
:1044800017D068280DD06A2814D104E0742810D001
:104490007A280FD10DE044F400140AE044F48014AB
:1044A00001E044F440147278824202D104F5801491
:1044B000761C761C307866280BD013DC582877D011
:1044C00009DC002875D04528F6D04628F4D04728C6
:1044D0001AD19DE118E0632835D0642879D0652889
:1044E00012D195E1702873D008DC6728F1D06928D3
:1044F0006FD06E280DD06F2806D1B5E073282CD070
:10450000752875D0782874D05A46179990476D1C35
:1045100075E1C4F30250022809D003280DD0D9F860
:10452000001004280DD00D6009F1040967E1D9F8E5
:104530000010EA17C1E90052F6E7D9F800100D8023
:10454000F2E70D70F0E719F8041B8DF80010002059
:104550008DF80100EA46012003E059F804AB4FF062
:10456000FF3061074FF0000102D40DE008F10101B6
:104570008846B9420FDA8045F8DB1AF8081000299E
:10458000F4D108E008F1010188468142FADB1AF80B
:1045900008100029F6D105985B46A0EB08072146D4
:1045A0003846179A00F094FA284400EB080507E013
:1045B0004DE029E10DE01AF8010B5A461799904792
:1045C000B8F10108F7D25B4621463846179A13E145
:1045D00042E00A220092C4F302524FF0000A022A7B
:1045E00008D059F804CB032A4FEAEC710AD00DE049
:1045F00029E02AE009F1070121F00702F2E802C1EF
:10460000914609E00FFA8CFC4FEAEC71042A03D1C1
:104610004FFA8CFC4FEAEC71002907DA0A460021B8
:10462000DCF1000C61EB02012D2202E0220504D531
:104630002B228DF80420012203E0E20701D0202282
:10464000F7E7904659E00A2102E010220DE0102120
:104650004FF0000A00910BE010224FF0000A44F0E6
:1046600004040827009203E008224FF0000A009299
:10467000C4F30252022A05D059F804CB0021032AC0
:1046800008D009E009F1070121F00702F2E802C1B0
:10469000914605E01FFA8CFC042A01D10CF0FF0CB6
:1046A0004FF00008220728D5702806D0009B83F021
:1046B000100353EA0A0305D00EE040228DF80420CF
:1046C000012208E05CEA010206D030228DF80420C5
:1046D0008DF8050002229046009B83F0080353EA00
:1046E0000A030AD15CEA010201D1620705D5302232
:1046F0008DF804204FF001087F1E582804D034A004
:1047000003900EA802900DE036A0F9E753466046EC
:10471000009AFCF7A1F884460398825C0298401E38
:10472000029002705CEA0100F0D1029806A9081A12
:1047300000F1200A600702D524F4803400E001274C
:10474000574502DDA7EB0A0000E0002000EB0A015C
:10475000009005984144401A0590E00306D45B465A
:104760002146179A059800F0B3F90544002706E0A2
:1047700001A85A46C05D179990476D1C7F1C47459C
:10478000F6DBE0030CD55B462146179A059800F04E
:104790009FF9054404E030205A46179990476D1C54
:1047A0000099481E00900029F5DC08E00298029963
:1047B0005A460078491C0291179990476D1CBAF12E
:1047C0000001AAF1010AF1DC65E1000009280100FD
:1047D0003031323334353637383961626364656677
:1047E0000000000030313233343536373839414239
:1047F000434445460000000000F058F90544761C8B
:10480000307800287FF4ECAD19B02846BDE8F08F71
:10481000620700D4062709F1070222F0070CFCE822
:104820000223E14603F000485FEA080C02D00FF2D1
:10483000702C0DE05FEA045C02D50FF2682C07E0F3
:104840005FEAC47C02D00FF2602C01E0AFF2700C82
:104850004FF0FF3823F00043CDF850C065280CD04E
:1048600006DC452809D046281DD047283DD13DE02B
:10487000662818D067287ED138E00021112F01DB8F
:10488000112000E0781CCDE9000106A90EA8FFF771
:10489000EDFCDDE90F010E9A03910021009207F172
:1048A000010A04914DE04FF000400097CDE901105E
:1048B00006A90EA8FFF7DAFCDDE90F0203920E9BB2
:1048C00011990022DDF80CA00093049211B9791C13
:1048D00000EB010AB7EB0A0004D4C0F1FF3007F186
:1048E000010A0490AAEB0700019044E0012F00DACE
:1048F00001270021112F01DD112000E03846CDE90C
:10490000000106A90EA8FFF7B1FCDDE90F010E9A20
:104910000391002104910092BA4621070CD4039917
:10492000514500DA8A46BAF1010F05DD009AAAF175
:104930000101515C302908D0B84202DA10F1040FAD
:1049400006DA0121CDE9011015E0AAF10101E9E73C
:10495000002805DC049901440491AAEB000102E05F
:10496000411C514500DD8A460499401A401C0190C3
:104970004FF000400290200704D40198504501DB1D
:10498000CDF8048000208DF84F0002980DF14F07FC
:10499000B0F1004F25D02B200E9002984FF0020866
:1049A00000280CDA404202902D200E9007E00A21E8
:1049B0000298FBF73BFF3031029007F8011DB8F178
:1049C0000001A8F10108F2DC02980028EFD1791E5D
:1049D0000E980870307800F0200040F0450007F88D
:1049E000020D12A8C01B00F107081498007800B14E
:1049F000012000EB0A01019801EBE07105984144A8
:104A0000401A401E0590E00306D45B462146179AE3
:104A1000059800F05DF805441498007818B15A46DE
:104A2000179990476D1CE00324D55B462146179AE1
:104A3000059800F04DF805441CE00498002807DBB9
:104A4000DDE90301884203DD0098405C179901E02D
:104A5000179930205A469047049805F10105401CEB
:104A600004900198401E019004D12E205A461799B7
:104A700090476D1CBAF10001AAF1010ADDDC05E0E6
:104A800017F8010B5A46179990476D1CB8F10001B1
:104A9000A8F10108F4DC5B462146179A0598ABE6BD
:104AA0002D0000002B000000200000002DE9F04147
:104AB000044600251E461746880404D405E03946FE
:104AC0002020B0476D1C641EF9D52846BDE8F08152
:104AD0002DE9F041044600251E469046C80301D545
:104AE000302700E02027880404D505E041463846F9
:104AF000B0476D1C641EF9D52846BDE8F0814A68B0
:104B0000002A06D00A68531C0B6010704868401ECB
:104B1000486070470A68531C0B60107070470000B3
:104B20002DE9FE4F06460F460025684601F01AFCA7
:104B3000002442E056F8240057F82410A0EB010AA4
:104B4000BAF1000F01DB514601E0CAF1000108464D
:104B5000FBF7A6FD83464FF08F41FBF74AFC8046EA
:104B60005DF824000021FBF74DFE16D05DF82410FF
:104B70004046FBF73EFC82464FF07E51FBF701FCBE
:104B8000814629F0004A0F48416A5046FBF744FE2F
:104B900012D20120A04005430EE00A48C1694046F8
:104BA000FBF730FE05D30748016A4046FBF734FEA9
:104BB00002D20120A0400543641C032CBADB284626
:104BC000BDE8FE8FDC9500082DE9F04D8D4F21F0FA
:104BD000004A86B005460C46BA452ADBAAEB070018
:104BE00028430AD08848824501DC1AD1CDB106B0ED
:104BF0002846BDE8F04DFFF709BB844A844B2846A0
:104C0000FBF7DCFC07460E46824A834B28462146CA
:104C1000FBF7D4FC06B03A463346BDE8F04DFBF74F
:104C200026BC0120FFF71CFB06B0BDE8F04DFFF7E6
:104C3000F2BA7A48824542DABAF1795F0BDA28464D
:104C4000FFF76EFA042808BFFFF7F2FA284606B00D
:104C50002146BDE8F08D2A460B461046FBF7AEFC18
:104C6000834602466E480E460B4606217844FFF7FF
:104C70006FFA5A463346FBF7A1FC804669488A46DC
:104C80005A46334604217844FFF762FA5A463346BF
:104C9000FBF794FC00223B46FBF7E9FB02460B4680
:104CA00040465146FBF706FF2A462346FBF786FCA3
:104CB00006B02A462346BDE8F04DFBF7D8BB284690
:104CC00024F0004100223D463B46FBF774FC4FF0C8
:104CD000FF32FBF75EFF0646024653480F460B467F
:104CE00006217844FFF734FA32463B46FBF766FC70
:104CF000CDE900014D4832463B4604217844FFF798
:104D000027FA32463B46FBF759FC00222B46FBF7BD
:104D1000AEFB834602913046394604F028F98046BE
:104D200043480D46504517DCDDE900015A46029B19
:104D3000FBF7C0FE42462B46FBF740FC42462B46A3
:104D4000FBF795FB0122FBF724FF304A304BFBF7C2
:104D50002FFC304A304B4CE04FF0000A52460B46D5
:104D60004046FBF784FBCDE9031052462B46104624
:104D70001946FBF723FC32463B46FBF71CFCDDE9FA
:104D80000332FBF797FE06460F46DDE900015A465F
:104D9000029BFBF78FFE8346009101223046394685
:104DA000FBF7F7FE194A1A4BFBF705FC06460F46C0
:104DB000012240462946FBF7ECFE5A46009BFBF7D2
:104DC000FDFB32463B46FBF7F3FB06460F4601224E
:104DD00050462946FBF7DDFE0E4DDFF858802A4687
:104DE0004346FBF7E8FB32463B46FBF7E4FB2A462B
:104DF0004346FBF7E0FB002CD8BF81F0004106B032
:104E0000BDE8F08D0000F03F0000F07F075C143338
:104E100026A6913C182D4454FB21F93F0000E03FA9
:104E200098550000AE55000022550000385500008E
:104E30003333EF3FFB21E93F2DE9F84F04460D46A0
:104E400021F0004000917349814211DC724988428F
:104E500001DC06D12CB120462946BDE8F84FFFF70A
:104E6000D5B96E48002DCCBF6D496E49BDE8F88FAD
:104E70006D49814211DD6D498142D8BF4FF0FF3647
:104E80006DDD20462946FFF74BF9042808BFFFF7E0
:104E9000CFF920462946BDE8F88F6549654F25F0D2
:104EA0000045814233DD6449814219DD00263246E6
:104EB0004FF0804320462946FBF7D9FA80468A46C0
:104EC000012220462946FBF764FE00223B46FBF701
:104ED0006FFB42465346FBF7EDFD04460D463EE0B0
:104EE00001260022BA463B4620462946FBF7BFFA78
:104EF00080460F460022534620462946FBF758FBC2
:104F000042463B46FBF7D6FD04460D4627E04B499B
:104F100081421BDDDFF828A10226002253462046ED
:104F20002946FBF74BFB00223B46FBF7A0FA8046E5
:104F30000F460022534620462946FBF739FB4246DE
:104F40003B46FBF7B7FD04460D4608E00326224624
:104F50002B4600203B49FBF7ADFD04460D4622469B
:104F60002B4610461946FBF729FB8B468246024624
:104F70000B46FBF723FB07460246334888460B46A1
:104F800006217844FFF7E4F852465B46FBF716FB30
:104F900082462E488B463A46434605217844FFF721
:104FA000D7F83A464346FBF709FB02460B46002E6C
:104FB000504659460CDAFBF75AFA22462B46FBF7C5
:104FC000FDFA01B022462B46BDE8F04FFBF7F3BADD
:104FD000FBF74DFA22462B46FBF7F0FA1C4A7A44BF
:104FE00002EBC603D3E90023FBF7E2FA22462B4685
:104FF000FBF7DEFA174A7A4402EBC603D3E9002333
:10500000FBF7D9FA009A002AB8BF81F00041BDE849
:10501000F88F0000000010440000F07F182D445469
:10502000FB21F93FFB21F9BF0000DC3F0000203EDF
:105030000000F33F0000F03F0000E63F0080034027
:105040000000F83F0000F0BFC25300008053000092
:105050001E530000E65200002DE9F04D9446CCF1BD
:10506000000423F000464CEA0404524F46EAD4748C
:105070009A46884621F00042BC4206D8454240EAA2
:10508000050442EAD474BC4204D9BDE8F04D62463E
:10509000FFF7BFB8AAF14055A5F17F6555EA0C04AA
:1050A0000BD0022404EAAA74434DDFF810E144EA6D
:1050B000D87452EA000B04D00CE0BDE8F04DFFF7C5
:1050C000BBBE002C14BF012CBDE8F08D022C30D0EB
:1050D000032C32D056EA0C0B0AD0BE4220D1BA4281
:1050E00009D126F0804622F080423346114617E06F
:1050F00000291ADB25E0DFF8C8B0FB44002C04BF10
:10510000DBE90001BDE8F08D012C02BFDBE9000105
:1051100081F00041BDE8F08D022C0AD0032C0CD0A8
:10512000BA4212D1B8F1000F0BDA23482549BDE885
:10513000F08D28462449BDE8F08D28467146BDE82B
:10514000F08D1D482149BDE8F08D921B12153C2AB7
:10515000C4BF19481D490EDCBAF1000FBEBF12F1E1
:105160003C0F0020014606DB6246FBF7A3FC21F062
:105170000041FFF761FE002C08BFBDE8F08D012C57
:1051800004BF81F00041BDE8F08D114A114B022CA3
:1051900007D0FBF70DFA2A46BDE8F04D0A4BFBF7A6
:1051A00007BAFBF705FA2A46BDE8F04D064BFBF7B8
:1051B00002BA00000000F07F182D4454FB2109C002
:1051C0007A520000FB21F9BFFB210940FB21F93F86
:1051D000075C143326A6A13C08B54FF6FF701023D8
:1051E0000022202100901046FCF798FD4FF6FF703A
:1051F00010230122202100901846FCF78FFD4FF666
:10520000FF7010230222302100900020FCF786FD61
:105210004FF6FF7010230322302100901846FCF750
:105220007DFD4FF6FF7010230422202100900846D8
:10523000FCF774FD4FF6FF7020230022114600900A
:105240003820FCF76BFD4FF6FF7020230122002170
:1052500000905820FCF762FD4FF6FF7020230222D9
:10526000002100907820FCF759FD4FF6FF702023B5
:105270000322002100909820FCF750FD4FF6FF70AC
:1052800010230422302100902020FCF747FD4FF628
:10529000E0730822E8219820FBF7C7FE4FF6FF7065
:1052A00010230522E0210090A020FCF737FD4FF6E7
:1052B000FF7010230622E0210090B020FCF72EFDA5
:1052C0004FF6FF7010230722E0210090C020FCF76A
:1052D00025FD4FF6FF7010230822E0210090D0201A
:1052E000FCF71CFD4FF6FF7010230922E02100900F
:1052F0000846FCF713FD4FF6FF7010230A22202109
:1053000000906020FCF70AFD4FF6FF700023252275
:10531000302100906820FCF799FC4FF6FF700023C5
:105320002E22202100904020FCF790FC4FF6FF70C9
:1053300000232E22302100904020FCF787FC4FF6FE
:10534000FF7010230C22402100900020FCF7E6FCA7
:105350004FF6FF7010230D22402100901846FCF7F5
:10536000DDFC4FF6FF7010230E224021009020201C
:10537000FCF7D4FC4FF6FF7010230F224021009061
:105380003020FCF7CBFC4FF6FF7010231A4640216B
:1053900000900846FCF7C2FC4FF6FF701023042271
:1053A000402100905020FCF7B9FC4FF6FF7010230D
:1053B0004C22502100900020FCF748FC4FF6FF7073
:1053C00010234522502100900820FCF73FFC4FF6A7
:1053D000FF7010234422502100901846FCF736FC41
:1053E0004FF6FF7010231122502100902020FCF76F
:1053F00095FC4FF6FF7010230F22502100903020B3
:10540000FCF78CFC4FF6FF7010231A4650210090D9
:105410004020FCF783FC4FF6FF701023042250213C
:1054200000900846FCF77AFC4FF6FF7324A2602137
:105430000020FCF73BFD4FF6FF7010230B2260218C
:1054400000901846FCF76AFC4FF6FF701023042208
:10545000602100902020FCF761FC4FF6FF7319A239
:1054600070210020FCF722FD4FF6FF7010230B2265
:10547000702100901846FCF751FC4FF6FF70102386
:105480000422702100902020FCF748FC4FF6FF73A7
:105490000DA280210020FCF709FD4FF6FF701023BC
:1054A0000B22802100901846FCF738FC4FF6FF7065
:1054B00010230422802100902020FCF72FFC08BD3F
:1054C00058000000590000005A00000070B5044662
:1054D00022E02568A08900F4807020B9A06810B18E
:1054E000A068FFF7F3FFA08900F4807028B9206955
:1054F00018B10B49206909688847A08900F4007039
:1055000028B9206A18B10649206A096888472046E8
:105510000349096888472C46002CDAD170BD000089
:1055200008050020014800687047000000050020C1
:1055300070B505460E46AC6800E024682CB13146D3
:10554000206A00F04FF80028F7D1204670BD000017
:1055500010B5282005490968884704461CB1282150
:105560002046FAF751FE204610BD00000405002039
:1055700010B5044600221146204600F001F810BD87
:105580002DE9F04780460D4616460024FFF7E0FF60
:1055900007460020124908600FB9BDE8F087404671
:1055A00003F0DCFC81464946384602F0F3FE04462F
:1055B00024B93846FFF78AFF0020EEE766B120469F
:1055C00003F0CCFC0446207830B13846FFF77EFF6C
:1055D000034804600020E0E705B12C603846DCE7B2
:1055E0000005002070B504460D462CB9AC4201D030
:1055F000012070BD0020FCE70DB90120F9E705E0AE
:10560000207808B90020F4E7641C6D1C2078FAF7B4
:10561000DCFD06462878FAF7D8FD8642F0D02078DF
:10562000FAF7D3FD06462878FAF7CFFD301AE0E7FF
:105630002DE9F0410446E07800F0C006E07800F083
:105640003F05607800F0010098B1EF102846E91797
:1056500005EB5171C910A5EBC101491C01F0FF0810
:105660000B48006820B10A48414602683846904716
:1056700000BF607800F0080030B10548406818B1FC
:10568000B011034A516888470020BDE8F08100004E
:105690002806002010B56FF00400FEF755F90A48FF
:1056A00000680A49B0FBF1F0094908700846007823
:1056B00000EB4001C1EBC0104FF6FF7101EAC000E2
:1056C0000449088010BD00002000002000127A006C
:1056D000E0040020E204002001460D4A12884A43FB
:1056E0004FF0E0235A6100229A6101221A6100BF43
:1056F0004FF0E022106900F001021AB100F480328C
:10570000002AF5D000224FF0E0231A619A61704719
:10571000E20400200146114A12784A434FF0E02388
:105720005A6100229A611A46126942F001021A6116
:1057300000BF4FF0E022106900F001021AB100F43E
:105740008032002AF5D04FF0E022126922F00102E7
:105750004FF0E0231A6100229A617047E0040020B4
:1057600038B5044664B120208DF8000028208DF85B
:10577000010030208DF8020038208DF8030004E08D
:10578000A32204216846FAF738FD6A46042140F650
:105790009E2002F085FA01F075FE38BD3EB5044644
:1057A00002208DF80000CA208DF80100E3208DF85A
:1057B000020009208DF803006A460421682002F0E7
:1057C0006FFAA3208DF8000004F0400048B1C0201B
:1057D0008DF80100C8208DF80200C2208DF803006A
:1057E00006E0A3208DF801008DF802008DF803007B
:1057F00004F4C07048B1C4208DF80400CC208DF8AA
:105800000500C6208DF8060006E0A3208DF80400F0
:105810008DF805008DF80600A3208DF807008DF89F
:1058200008008DF809006A460A2140F6A72002F018
:1058300037FA04F0030018B120208DF8000002E0D0
:10584000D8208DF800006A46012140F6B62002F00B
:1058500027FA04F0200018B1012000F0ADF802E0B2
:10586000002000F0A9F804F4C07008B304F48070BC
:1058700060B1B2208DF800008B208DF80100B620B9
:105880008DF802009B208DF803000BE0B0208DF80E
:10589000000080208DF80100B4208DF802009020D7
:1058A0008DF803006A46042140F6A22002F0F8F9C0
:1058B00004F0010020B3F8208DF800006A460121B1
:1058C0004FF40B6002F0ECF9FA21072000F02CFCF9
:1058D000072000F0F3FB012000F013FC642000F02F
:1058E000F3FC4FF4FA7000F002FDC821304800F0DC
:1058F000A3FB282000F0BCFB0A2000F0CCFB08E052
:10590000D8208DF800006A4601214FF40B6002F0A8
:10591000C7F904F0020018B1D9208DF8000002E0A8
:10592000D8208DF800006A46012140F23D7002F057
:10593000B7F904F0040018B1012000F069F802E0A2
:10594000002000F065F804F0100018B10120FFF706
:1059500007FF02E00020FFF703FF44F008001549AD
:10596000488101F08FFD00201249887304F0400047
:1059700018B10846807B801D887304F4C07020B184
:105980000C48807B801D0B49887304F0140020B103
:105990000848807B10300749887304F0030020B169
:1059A0000448807B001D0349887300203EBD000031
:1059B00009E3CA02280600203EB504466CB10EA1D8
:1059C000D1E900208968CDE9002002916A460921C9
:1059D0004FF4976002F064F93EBD0AA2D2E90010CC
:1059E0009268CDE9010200916A4609214FF497605F
:1059F00002F056F9F0E70000B8AAB38DB4980D355F
:105A00005D000000B8AAAAAAB088C3C5C7000000FC
:105A100038B5044664B1C0208DF80000C2208DF86E
:105A20000100C4208DF80200C6208DF8030004E0B8
:105A30008B2204216846FAF7E0FB6A46042140F60F
:105A4000982002F02DF901F01DFD38BD10B5C823D6
:105A50004FF48062024940F6F63001F0A7FB10BD1A
:105A6000049600082DE9F04F8DB00746884615468C
:105A70009946DDE9166B0024002030806B49887B55
:105A80005A4605A901F05EFC18B1601E0DB0BDE8D4
:105A9000F08F6648807A00F01400002867D09DF8E7
:105AA000140000069DF8151040EA01409DF81610FC
:105AB00040EA01209DF81710084328609DF818005F
:105AC00000069DF8191040EA01409DF81A1040EABE
:105AD00001209DF81B10084368609DF81C0000061B
