:020000040800F2
:10000000980C0020C10200086F3800088F270008F4
:100010006B380008391F00084D4700080000000039
:100020000000000000000000000000001141000876
:10003000C520000800000000F93F00082542000824
:10004000DB020008DB020008DB020008DB0200081C
:10005000DB020008DB020008652400089524000884
:10006000DB020008DB020008DB020008DB020008FC
:10007000DB020008DB020008DB020008DB020008EC
:10008000DB020008DB020008DB020008DB020008DC
:10009000DB020008DB020008DB020008DB020008CC
:1000A000DB020008DB020008DB020008DB020008BC
:1000B0008942000885430008DB020008DB020008D3
:1000C000DB020008DB020008DB020008DB0200089C
:1000D000DB020008214500083D450008DB0200085E
:1000E000DB020008DB020008DB020008DB0200087C
:1000F000DB020008DB020008DB020008DB0200086C
:10010000DB020008DB020008DB020008DB0200085B
:10011000DB020008DB020008DB020008DB0200084B
:10012000DB020008DB020008DB020008DB0200083B
:1001300000F002F800F0B4F80AA090E8000C824445
:100140008344AAF10107DA4501D100F0A9F8AFF222
:10015000090EBAE80F0013F0010F18BFFB1A43F0A5
:100160000103184718750000387500000A444FF065
:10017000000C10F8013B13F0070408BF10F8014B06
:100180001D1108BF10F8015B641E05D010F8016B4B
:10019000641E01F8016BF9D113F0080F1EBF10F8AF
:1001A000014BAD1C0C1B09D16D1E58BF01F801CBD2
:1001B000FAD505E014F8016B01F8016B6D1EF9D555
:1001C0009142D6D37047000000230024002500266A
:1001D000103A28BF78C1FBD8520728BF30C148BFAA
:1001E0000B6070476E2900F0F584702900F0E781FC
:1001F000662906F01186652906F00E86672906F045
:100200000B866129AFF3008003681B0A28BF41F009
:100210008001692900F05881642900F05581752911
:1002200000F052816F2900F0F187782900F0B38146
:10023000E92900F08B87E42900F08887F52900F090
:100240008587EF2900F0EE87F82900F0B281036876
:10025000DB0928BF41F08001632900F00C87732976
:1002600000F01187E32901F0D180F32901F0D68055
:10027000002070471FB59DE8030000F0FFFB01F070
:1002800017F804000020002105F0F4FF401C606016
:100290000020002106F004F8E0601FBD10B510BD7D
:1002A00001F0A6F91146FFF7E5FF04F00DFE01F09D
:1002B000D2F903B4FFF7F2FF03BC01F03FFA0000EC
:1002C0000948804709480047FEE7FEE7FEE7FEE7EA
:1002D000FEE7FEE7FEE7FEE7FEE7FEE70448054926
:1002E000054A064B7047000029420008310100080A
:1002F00098060020980C00209808002098080020FC
:1003000070B5064600F09AFB056806F10B0020F078
:100310000704B4429CBF002070BD2B466A68BAB186
:100320001068A04210D304F1080188423CBF506815
:10033000586007D35168101941601168091B0160AA
:1003400058601460101D70BD13465268002AE7D132
:100350002146284600F07EFB0028DED170BD70B536
:100360000446051F00F06AFB0068002C14BF4468B7
:1003700070BD002C18BFAC423CBF20466468F8D367
:1003800001680A18AA4218BF456003D12A680546C9
:100390001144016028684119A1421CBF6C6070BD06
:1003A0006168696021680844286070BD10B5044622
:1003B00000F03CFB0068005DC00602D504F120009F
:1003C00010BD204610BD00007CB51D4616460C0031
:1003D000009001D02044401E074B7B442A466946CA
:1003E0000190304600F01DFE05461CB10020694614
:1003F00000F02AFE28467CBD750C00000FB41CB529
:10040000084B06AA7B4469460090059800F009FE57
:1004100004460020694600F017FE20461CBC5DF82B
:1004200014FB0000410C000070B5044685690068AB
:10043000C10601D5302600E02026C00707D070BDD8
:10044000D4E9012130469047206A401C20626D1E8D
:10045000F6D570BD70B5044685690078C00707D130
:1004600070BDD4E9012120209047206A401C206201
:100470006D1EF6D570BD70B50C460546012A05D037
:100480002878800600D5EA69002302E0012305E010
:100490005B1C934202D2E05C0028F9D1A869E618FF
:1004A000C01AA861286A184428622846FFF7BCFFD2
:1004B00004E0D5E9012114F8010B9047B442F8D3C8
:1004C0002846FFF7C7FF70BD2DE9F041064600241E
:1004D00010687529314616A510D000F010FB0028D1
:1004E00002DA404213A507E031688A0701D512A558
:1004F00002E0490704D511A5012401E000F008FB42
:1005000000210A2206F1240709E0B0FBF2FCB0FB4F
:10051000F2F302FB1C00303078541846491C0028C6
:10052000F3D123462A463046BDE8F04100F0F9BA3F
:10053000000000002D0000002B0000002000000043
:10054000F0B40D460188090502D5214C7C4402E037
:100550001F4C7C440E34002100F1240608E002F018
:100560000F071209E75D42EA03721B097754491C21
:1005700052EA0307F3D102780023120704D5702D45
:1005800006D009B1022311342246F0BC00F0C9BAEA
:1005900001231034F8E770B504460D462146106873
:1005A00000F0B6FA024629462046BDE87040002316
:1005B000C6E7D21D22F00703D3E90023C0E7036892
:1005C000126843F0200303600823C3610023B7E7E8
:1005D000BB6F00002DE9F05F894604464FF0000A2A
:1005E000DFF874B1FB44C0F820A02046E1688847DA
:1005F000002874D0252806D0D4E901219047206A2C
:10060000401C2062F1E700265F462046E1688847EB
:100610002028054607DB312D05D2781910F8200C6B
:1006200008B10643F1E7B00701D526F00406C4F887
:100630001CA00027C4F818A02A2D09D0284604F0D1
:10064000FBF938B304EB8708303DC8F8185019E0BF
:1006500059F8041B204604EB87029161E168884742
:10066000012F054618D1E069002820DA26F020067F
:100670001DE0D8F8180000EB800005EB4000303892
:10068000C8F818002046E1688847054604F0D4F908
:100690000028EED1012F0AD02E2D08D12046E16886
:1006A00088477F1C0546022F46F02006C4DBA06960
:1006B000002803DA404246F00106A061F00701D0AD
:1006C00026F010066C2D0BD0682D09D04C2D39D09A
:1006D0006A2D35D0742D35D07A2D33D016E038E020
:1006E000E1682F4620468847B842054609D16C2F5D
:1006F00026D04FF48060E1680643204688470546CF
:1007000004E06C2F1AD04FF4807006430DB3A5F1AE
:100710004100192802D8203546F400664A46294689
:10072000204626604E46FFF75DFD80B101280BD0C4
:10073000F61D26F0070000F1080956E74020E4E71F
:100740008020D8E70020D6E706F104094DE72846C7
:1007500052E7206ABDE8F09F4B6F000070B5064677
:1007600000F070F90468054630460A22002100F0C6
:1007700063FD2C6070BD401ECAB210F8011F8A4292
:1007800002D00029F9D10020704710B5431E13F89C
:10079000014F002CFBD105E011F8014B002C03F8B0
:1007A000014B03D0521EF7D20021197010BD30B595
:1007B00005460B462A4613F8014B12F8010B08B107
:1007C000A042F8D01CB1002802D06D1CF1E72846E9
:1007D00030BD10B5431C02E010F8011B71B1810758
:1007E000FAD14FF0013202C88C1A8C4314EAC211BC
:1007F000F9D0C01A0A0603D0C01E10BDC01A10BD21
:100800000A0401D0801E10BD0902FCD0401E10BD9C
:1008100040EA010370B59B072ED14FF00136042A40
:100820002AD308C810C99D1B9D43121F15EAC6157F
:1008300017D0D8B2E1B2401A50EA056110D198B28F
:10084000A1B2401A50EA05410AD123F07F4024F0BA
:100850007F41401A50EA052102D1180EA0EB146026
:1008600070BDA342DBD018BA21BA884201D9012059
:1008700070BD4FF0FF3070BD0AB9002070BD10F898
:10088000013B11F8014B63B1A3420AD1521E08D0BB
:1008900010F8013B11F8014B1BB1A34201D1521ECC
:1008A000EDD1181B70BD032A40F2308010F0030C0C
:1008B00000F0158011F8013BBCF1020F624498BFB3
:1008C00011F801CB00F8013B38BF11F8013BA2F150
:1008D000040298BF00F801CB38BF00F8013B11F0CB
:1008E000030300F02580083AC0F0088051F8043B6B
:1008F000083A51F804CBA0E80810F5E7121D5CBFD8
:1009000051F8043B40F8043BAFF30080D20724BF0A
:1009100011F8013B11F801CB48BF11F8012B24BF9E
:1009200000F8013B00F801CB48BF00F8012B7047ED
:1009300010B5203AC0F00B80B1E81850203AA0E87A
:100940001850B1E81850A0E81850BFF4F5AF5FEAAE
:10095000027C24BFB1E81850A0E8185044BF18C961
:1009600018C0BDE810405FEA827C24BF51F8043B08
:1009700040F8043B08BF7047D20728BF31F8023B5C
:1009800048BF11F8012B28BF20F8023B48BF00F8F0
:10099000012B70474FF000020429C0F0128010F0C4
:1009A000030C00F01B80CCF1040CBCF1020F18BF4B
:1009B00000F8012BA8BF20F8022BA1EB0C0100F0DE
:1009C0000DB85FEAC17C24BF00F8012B00F8012BB1
:1009D00048BF00F8012B70474FF0000200B51346E6
:1009E00094469646203922BFA0E80C50A0E80C504F
:1009F000B1F12001BFF4F7AF090728BFA0E80C5000
:100A000048BF0CC05DF804EB890028BF40F8042BF8
:100A100008BF704748BF20F8022B11F0804F18BF65
:100A200000F8012B704770477047704710B500F011
:100A30003FFC001D10BD00BF3D580000004870473E
:100A40003C0600200048704734060020704770477D
:100A50007047704738B504460A4600206946AFF330
:100A60000080002808BF38BD02460099204600F0EB
:100A700023FC012038BD012000F0B2BDF8B5AFF372
:100A80000080054600200C46102000BF0646A8192D
:100A9000A0420DD9324669460020AFF3008007001E
:100AA00008BF00F09DFD0098A04218BF0546C4197C
:100AB000FFF7C4FF05600746F01D20F00700461948
:100AC000284600F00AF8B44208BFF8BDA21B314620
:100AD0003868BDE8F84000F0EFBB00210160C0E9D4
:100AE000011070471020704710B5FFF7ABFF00688A
:100AF00010BD10B50446FFF7A5FF046010BD0968DE
:100B00004A0501D540B27047C905FCD500B270470F
:100B100009684A0501D5C0B27047C905FCD580B245
:100B200070472DE9F0470D4699469246044600F17C
:100B300024080168880604D5E06921F010012160CD
:100B400000E00120A84201DD471B00E00027A16969
:100B50007A1902EB0900081AA0612078C00602D4B5
:100B60002046FFF761FC002608E0D4E901211AF8CD
:100B700006009047206A401C761C20624E45F4DB3C
:100B80002078C0060AD52046FFF74EFC06E0D4E9DF
:100B9000012130209047206A401C2062381EA7F1B6
:100BA0000107F4DC07E0D4E9012118F805009047BB
:100BB000206A401C2062281EA5F10105F3DC2046B6
:100BC000FFF748FC2078000602D50220BDE8F08738
:100BD0000120FBE711680268006A530501D508701F
:100BE0000AE0D30501D5088006E0130603D5C21735
:100BF000C1E9000200E008600120704770472DE95C
:100C0000FF4F0C461E464FF0FF378BB0D2E9000174
:100C1000DDF860800A908A46C1F30A5505B93D4661
:100C2000002108464FF00000BAF1000F00F4400028
:100C300005DA00EB80004FF4400101EA50004FEA72
:100C40009059B9F1010F00DDB9460A9850EA4A00FF
:100C50000ED044F61050A5F2FF3545432F14B8F1DD
:100C6000000F1ED07542291E1EDDC9F100021CE0D6
:100C7000B8F1010F4FF0000001D0302103E0F24342
:100C800005E02154401CB042FBDB3046002200212D
:100C900021540B99C1F80880C1E900200FB0BDE8CC
:100CA000F08FBD1B6D1CDEE74A4600DA694206A8DC
:100CB00000F008FC06AB93E8070003AB83E80700ED
:100CC00050460A9900F060FD8DE80700A0F500503D
:100CD0001F3800900398002D09DD42F21F014A469B
:100CE000084403A90390684600F0BFFF08E0A0F5A0
:100CF00000504A461F3803A90390684600F0C9FF18
:100D00008DE807000004000C03D04FF0FF304108CD
:100D100000E01046B8F1000F03D000220092154603
:100D20001EE0751E05D400F0E1FA303262556D1EEA
:100D3000F9D5B3460122084302D000227F1C04E00B
:100D40002078302801D100227F1E002A099786D002
:100D50001DE0112D07DA00F0C9FA303262556D1C22
:100D600050EA0102F5D1084302D00098C8B10EE064
:100D70000021681E05E0235C625C63542254401E1F
:100D8000491C8142F7DBAB46A81B401E099000209E
:100D900004F80B000B98099AC0F80880C0E9002BF2
:100DA0007CE711264FF0000859E72DE9F04F8846FF
:100DB0000446D21D22F0070191B0D1E90001CDE92E
:100DC0000A0103F0B0FD02460B98C00F01D02D20A0
:100DD00007E02068810701D52B2002E0202101EAED
:100DE000C000032A099001D0072A05DB03464146CB
:100DF000204600F0C1FA0BE12078800601D5E069B9
:100E000000E00620B8F1650F814606D0B8F1660F04
:100E100018D0B8F1670F70D131E00020B9F1110F8F
:100E2000009001DB112301E009F101030AAA01A9E5
:100E30000CA8FFF7E4FEDDE90C70002609F10105BE
:100E4000834647E001204B4600904FF000470AAA36
:100E500001A90CA8FFF7D3FEDDE90DB00C995D46A2
:100E6000002610B909F101000D18B9EB050003D4F3
:100E7000C0F1FF3609F10105A5EB09002BE0B9F13E
:100E8000010F01DA4FF001090020B9F1110F0090B4
:100E9000484601DD112300E003460AAA01A90CA877
:100EA000FFF7ADFEDDE90C704D4600268346207845
:100EB00000070AD4AB4500DA5D4601A8012D04DD28
:100EC000411911F8011C302907D04F4502DA17F1FA
:100ED000040F04DA012082460FE06D1EEEE7002FBA
:100EE00002DCED1B3E4403E0781CA84200DD7D1CC3
:100EF000B81B00F1010A4FF000472078000703D427
:100F0000AA4501DB4FF0FF3A0021B7F1004F0DF188
:100F100043088DF8431024D002202B23002F01DA40
:100F20007F422D230A21021EA0F1010000DC5FB1E7
:100F300097FBF1FC97FBF1F201FB1C7C17460CF1CF
:100F4000300C08F801CDEEE7A8F10100037021880C
:100F5000090501D5452100E06521A0F1010800F84F
:100F6000011C09980FA9A1EB0807FF1D00B1012082
:100F7000411901EBEA70A1693844081A401EA061CA
:100F80002078C00602D42046FFF74EFA099828B10F
:100F9000D4E901219047206A401C20622078C006D5
:100FA00022D52046FFF740FA1EE0002E04DBB345B1
:100FB00002DD01A8805D00E03020D4E901219047E6
:100FC000206A401C2062761CAAF101005FEA000A38
:100FD0000AD100F06DF9C0680168405CD4E90121D4
:100FE0009047206A401C2062281EA5F10105DCDC28
:100FF00007E0D4E9012118F8010B9047206A401C52
:101000002062381EA7F10107F3DC2046FFF722FA21
:10101000032011B043E6000001694A1C0261087810
:10102000704700B58FB0CDE9013100210591054928
:101030007944CDE9031011466846FFF7CBFA0FB0AB
:1010400000BD0000E5FFFFFF0A6802F8010B0A601F
:101050007047D1E900239A4202D2531C0B601070F2
:10106000704710B5436913B1AFF3008001E0FFF79B
:1010700002FA012010BD127800F124010A7000224A
:101080004A700122EDE711684FF0FF32E9E70000F6
:101090002DE9FF5F15468A460446DFF8AC80F84428
:1010A0000027D8E900103E46CDE9001010E03AF8DC
:1010B00016106A4602A800F073FA411C07D0217886
:1010C000890603D5E269391891420DD80744761C88
:1010D0002078800602D5E069B84205DDAE42E6DB45
:1010E0003AF816000028E2D1A069C01BA061204692
:1010F000FFF79AF9D8E90010CDE90010002017E0B9
:101100003AF818106A4602A800F04AFAB0F1FF3F18
:1011100081460BD000250DF1080B05E0D4E9012133
:101120001BF8050090476D1C4D45F7D308F10100F1
:10113000B0428046E4DB206A384420622046FFF754
:1011400089F9BDE8FF9F00002E6500002DE9F04100
:101150008046D21D22F007020025D2E90002F529BF
:1011600015A614D0011E72F1000106DA0023D0EB9F
:10117000030063EB020211A608E0D8F800108B0709
:1011800001D50FA602E0490701D50EA6012511469B
:10119000002408F1240704E000F0A8F830323A55A2
:1011A000641C50EA0102F7D12B46324621464046E4
:1011B000BDE8F041FFF7B5BC000000002D000000C5
:1011C0002B0000002000000030B4002100F12404B6
:1011D00008E002F00705D208303542EA4372DB0826
:1011E0006554491C52EA0305F3D10468002310A298
:1011F000250708D504F020040C4304D0C46901235A
:101200000CA2641EC46130BCFFF78BBC10B5044651
:1012100021461068FFF77CFC02462046BDE81040DE
:101220000023D1E7D21D22F00701D1E90023CBE74B
:1012300000000000300000002DE9F04791460F4605
:1012400080460446002614F8015B2DB1FFF7EEFB43
:101250000068405DC007F6D12B2D02D02D2D18D08F
:10126000641E4A463946204600F0DCF827B139684A
:10127000A14201D1C7F800804FF0020471050BD5DF
:101280004042002803DDFFF7DDFB0460A007BDE856
:10129000F08746F48066E4E70028F8DAFFF7D2FB2F
:1012A00004606FF00040F2E7004870473406002009
:1012B0000048704754060020034640688C460028CA
:1012C00018BF88423CBF03464068F8D318681844EA
:1012D000884207D00CF1030020F00700001D411ADE
:1012E000521A0146081D0A60FFF739B830B5B0F14F
:1012F0000A024FEA900E71F100034EEA817EB0EBD4
:101300000E0061EB91014FEA101E4EEA017E10EBD8
:101310000E0041EB11114FEA102E4EEA016E10EB58
:101320000E0041EB11214FEA104E4EEA014E10EB38
:101330000E0041EB1141401841F100014FEAD0008D
:1013400040EA41704FEAD10110EB80054FEA810479
:1013500044EA907444EB01046D1944EB0404521BFD
:10136000A3414FF0000348BF0A3200D530BD401CF6
:1013700041F1000130BD00002DE9F0411F46044657
:1013800003260168072A01F4006004DB08B116A5F2
:1013900005E016A503E008B115A500E015A521F0AC
:1013A00010002060A069C01EA0610FB1401EA061A6
:1013B0002046FFF739F84FB1D4E90121384690476C
:1013C000206A401C2062C01C206206E0206AFAE706
:1013D000D4E9012115F8010B9047761EF8D220467A
:1013E000FFF738F8BDE8F0814E414E006E616E00A7
:1013F000494E4600696E660010B5436913B1AFF3FC
:10140000008001E0FFF744FE012010BD128800F1CA
:10141000240182840022C2840122EDE711684FF08A
:10142000FF32E9E72DE9F05F824615468B4600273B
:101430000AF10104B9460078302801D09DB113E0CB
:1014400014F8010B0127782803D0582801D045B1A2
:101450000AE00DB1102D07D1002714F8010B10255B
:1014600002E0082500E00A250026B0460EE005FB54
:10147000080005FB06F101271FFA80F801EB104672
:10148000B6F5803F00D3B94614F8010B294600F0A9
:10149000D4F80028EBDABBF1000F05D00FB1641EC1
:1014A00000E05446CBF80040B9F1000F06D0FFF73A
:1014B000C9FA02210160C81EBDE8F09F48EA064053
:1014C000FAE700002DE9F047814616468AB0334816
:1014D00078440DC88DE80D0030487844801C03AC7A
:1014E0000DC884E80D0041F69B300844372190FB7D
:1014F000F1F290FBF1F5A5F1800501FB12041B3C14
:1015000002D56442012000E00020DFF890A0804670
:101510000027FA44AAF1BE0A0DE0E00709D03246DE
:10152000684607EB47010AEB810100F0B2FB8DE84A
:10153000070064107F1C002CEFD1184F7F44AC3F94
:1015400018E0E80714D007EB04100DF1180A90E832
:101550000E008AE80E00C068F04201D19819089088
:10156000324606A903A800F094FB03AB83E807000A
:101570006D10641C002DE4D132466946B8F1000FAD
:1015800003A802D000F071FB01E000F082FBC9E982
:101590000001C9F808200AB0BDE8F08788610000A2
:1015A00070B516460C460546FFF740FA036893F8F7
:1015B0000101012806D0FF2C0FD8185D68B1012069
:1015C0002C7070BDD3F807013246214603F2071391
:1015D00003442846BDE8704018474FF0FF3070BD07
:1015E00010B500F043F8BDE8104000F03AB870477D
:1015F0007546FFF759FEAE4605006946534620F092
:101600000700854618B020B5FEF768FEBDE820400B
:101610004FF000064FF000074FF000084FF0000BAE
:1016200021F00701AC46ACE8C009ACE8C009ACE861
:10163000C009ACE8C0098D4670473A2800D230385E
:1016400020F02002412A01D3A2F13700884201D3C1
:101650004FF0FF3070470446AFF300802046FEF79E
:1016600028FE002801D000F069B8704710B50128A5
:1016700005D0002103A000F067F8012010BD09A1EA
:10168000F8E7000053494752544D454D3A204F75F5
:1016900074206F662068656170206D656D6F72796A
:1016A000000000003A2048656170206D656D6F7222
:1016B0007920636F72727570746564004FF0013C3D
:1016C00050F8042B51F8043B9A4221D1A2EB0C03B1
:1016D000934313EACC1317D150F8042B51F8043B71
:1016E0009A4215D1A2EB0C03934313EACC130BD10E
:1016F00050F8042B51F8043B9A4209D1A2EB0C0399
:10170000934313EACC13DBD04FF00000704700BFC7
:10171000D01A01BAB1FA81F101F0180122FA01F0F0
:10172000CB40C1F12001DBB2C0B2C01A2CFA01F3E8
:10173000D11A914311EAC311E6D17047014918202B
:10174000ABBEFEE72600020070B505460C460A2037
:1017500000E06D1C00F011F835B128780028F8D1B0
:1017600002E0641C00F009F814B120780028F8D1D8
:10177000BDE870400A20AFF3008008B569468DF8D7
:1017800000000320ABBE08BD5FEA400C08BF91F02B
:10179000000F4FEA8C234FEAC12243EA51514FEA2E
:1017A0001C5018BF00F5F0404FEA300018BF41F060
:1017B00000415FEA6C5C00F02980BCF1FF3F08BF8C
:1017C00040F080407047130C06BF12044FF0100C1D
:1017D0004FF0000C130E04BF12020CF1080C130F93
:1017E00004BF12010CF1040C930F04BF92000CF122
:1017F000020CD30F04BF52000CF1010C11464FF044
:101800000002A0F11F00A0EB0C00704711F0004F88
:1018100008BF704731F000413FF4D5AF0B0C06BF55
:1018200009044FF0100C4FF0000C0B0E04BF09021E
:101830000CF1080C0B0F04BF09010CF1040C8B0F09
:1018400004BF89000CF1020CCB0F04BF49000CF15E
:10185000010CCCF12003A0EB0C0022FA03F302FAF6
:101860000CF241EA030100F10100704720F07F4CC7
:1018700080EA030023F07F47ACEB070303F57C53BA
:1018800000F0004003F1FF032DE980494FEA154BBA
:1018900009B44FEA144325EA0B4E24EA03480FF239
:1018A000042606EB132749083E785FEA320203FB61
:1018B0000667C7F5000707FB06F64FEA54374FEAFD
:1018C000D64606F1020607FB066CCCF1005C4FEA37
:1018D0001C472CEA074C07FB06F40CFB06F504EB4F
:1018E00015464FEA961634BF00204FF000404FEAED
:1018F000D13706FB07FC4FEA1C4C0CFB0BF7D21B45
:1019000003FB0CF761EB07010CFB0EF7B0EB074094
:1019100072EB17420CFB08F734BFA2EB0742B2EBA5
:10192000074261EB17414FEA0C444FEA910706FB6F
:1019300007FC4FEA1C4C0CFB0BF7B0EBC74072EBFB
:10194000573203FB0CF734BFA2EBC742B2EBC742DE
:1019500061EB57310CFB0EF7B0EBC70072EB57721F
:101960000CFB08F734BFA2EBC702B2EBC70261EB76
:101970005771039F4FEA816141EA921104EBCC0455
:101980004FEAD1374FEA826206FB07FC42EA901227
:101990004FEA80604FEA1C4C0CFB0BF7D21B03FB99
:1019A0000CF761EB07010CFB0EF7B0EB074072EB95
:1019B00017420CFB08F734BFA2EB0742B2EB074219
:1019C00061EB17414FEA8C554FEA910704EB9C24D9
:1019D00006FB07FC4FEA1C4C0CFB0BF7B0EBC740B7
:1019E00072EB573203FB0CF734BFA2EBC742B2EBEA
:1019F000C74261EB57310CFB0EF7B0EBC70072EB3F
:101A000057720CFB08F734BFA2EBC702B2EBC70258
:101A100061EB577115EB4C254FEA816141EA921158
:101A20004FEA82624FEAD13742EA901206FB07FC86
:101A300044F100044FEA80604FEA1C4C0CFB0BF7AA
:101A4000D21B03FB0CF761EB07010CFB0EF7B0EBAD
:101A5000074072EB17420CFB08F734BFA2EB0742BA
:101A6000B2EB074261EB174115EB1C154FEA8131D0
:101A700041EA92414FEA823242EA90424FEA803094
:101A80004FEA0C7644F1000448EA03434EEA0B485F
:101A90004FF0000EB2EB080C71EB030724BF624657
:101AA00039464EEB0E0E4FF0000B001852414941E3
:101AB0004BEB0B0BB2EB080C71EB03077BF1000B4C
:101AC00024BF624639464EEB0E0E4FF0000B001855
:101AD000524149414BEB0B0BB2EB080C71EB030786
:101AE0007BF1000B24BF624639464EEB0E0E51EAE5
:101AF000020718BF46F0010616EB0E7655F10002FC
:101B000054F1000103D5BDE88901BDE80088BDE8B6
:101B10008901BDE80048B619524141EB0101A3F12A
:101B20000103704780807F7E7D7C7B7A7978777631
:101B300076757473727171706F6E6E6D6C6C6B6AAA
:101B40006A69686867666665646463636261616048
:101B5000605F5F5E5E5D5D5C5C5B5B5A5A595958C5
:101B6000585757565655555554545353525252512F
:101B7000515050504F4F4F4E4E4D4D4D4C4C4C4B85
:101B80004B4B4A4A4A4949494848484747474746CC
:101B90004646454545444444444343434342424208
:101BA00042414141002B26D4770021D01CB54FEA99
:101BB000370703B44FF010004FF010014FF0000052
:101BC0000FBCBDE810400BF1010BBBF1010F08BFCA
:101BD0005FEA170722BF12F1010211F101014FF074
:101BE000004143F1000300F0004043EA0000704769
:101BF000F9D35708DAE746EA064613F1400F4FEAF1
:101C000016461FDD13F1200FDFBF16430A460021E1
:101C100020335B42C8D0C3F1200746EA064602FAE9
:101C200007F74FEA164646EA0706C3F1200722FAED
:101C300003F201FA07F721FA03F14FF0000342EA39
:101C40000702B1E746EA020646EA06464FEA1646AA
:101C500046EA0106BCBF46EA0646360C4FF00003D2
:101C60004FF000024FF000019EE72DE9C048934677
:101C700030B491E8380007C831EA400C48BF34EA74
:101C8000430C03D5FFF7F2FDFFF78CFFF0BCBDE876
:101C900000882DE9C048934630B491E8380007C861
:101CA00010F0804F08BF13F0804F03D100F005F80B
:101CB000FFF778FFF0BCBDE8008820F07F4780EA9E
:101CC000030023F07F4C07EB0C03A3F57C5300F0DB
:101CD0000040A3F1FE0392F0000F00F0B38095F0F6
:101CE000000F00F077802DE901494FEA11404FEADB
:101CF000144621EA004800FB06FC24EA064708FBDC
:101D000006F607FB08F800FB07F718EB06484CEB54
:101D1000164C4FEA124B18EB07484FEA15464CEBAE
:101D2000174022EA0B4E0BFB06FC25EA06470EFB8A
:101D300006F607FB0EFE0BFB07F71EEB064E4CEB01
:101D4000164C4FF000061EEB074E4CEB174B18EBF2
:101D50000B0840F1000018EB0E0B58EB000840F1A7
:101D600000008F1A4FF000013CBFC943661B14BF2F
:101D7000B5EB040C00213CBFC943F61B4FEA1744E6
:101D80004EEA8E0E27EA04454FEA1C4704FB076221
:101D90002CEA074C05FB07F70CFB05F604FB0CFCD3
:101DA00016EB074642EB174216EB0C4642EB1C4281
:101DB0001BEB060658EB0202414146EA9E0601D59E
:101DC000BDE80189B619524141EB0101A3F10103BC
:101DD000BDE801894FEA14454FEA114724EA054658
:101DE00021EA074C05FB07F406FB07F70CFB06F19D
:101DF00005FB0CFC11EB074144EB17444FEA12477B
:101E000011EB0C4144EB1C4422EA074C05FB07F2A2
:101E100006FB07F70CFB06F605FB0CFC16EB07466A
:101E200042EB174216EB0C4642EB1C456A1854F184
:101E3000000148BF7047B619524141EB0101A3F1BF
:101E40000103704795F0000F37D04FEA11424FEA77
:101E5000144721EA024624EA074C02FB07F106FB7D
:101E600007F70CFB06F402FB0CFC14EB074441EBF8
:101E700017414FEA154714EB0C4441EB1C4125EA8E
:101E8000074C02FB07F506FB07F70CFB06F602FB07
:101E90000CFC16EB074645EB174516EB0C4645EBDD
:101EA0001C42121951F1000148BF7047B619524146
:101EB00041EB0101A3F1010370474FEA14454FEADA
:101EC000114724EA054621EA074C05FB07F106FB0A
:101ED00007F70CFB06F24FF0000605FB0CFC12EBBB
:101EE000074241EB174112EB0C4251EB1C4148BF3A
:101EF0007047921841EB0101A3F101037047000004
:101F000008B50121082002F089F84FF48070ADF87F
:101F1000000010208DF8030003208DF802006946B0
:101F2000044800F097FB4FF48071024800F026FC53
:101F300008BD0000000C014000BFFEE708B501210C
:101F4000042002F06BF804208DF803000120ADF8A6
:101F5000000003208DF802006946024800F07AFB79
:101F600008BD00000008014008B50121042002F06E
:101F700055F810208DF803000120ADF80000032073
:101F80008DF802006946024800F064FB08BD0000BD
:101F9000000801402DE9F84F00F076F801212448AF
:101FA00000F0EEFB0121224800F0DFFBA8BB00BFE0
:101FB00001211F4800F0D9FB0028F9D000BF012102
:101FC0001B4800F0D2FB0128F9D000F035F8044698
:101FD00000F032F8054600F02FF8064600F02CF825
:101FE000074600F029F800900121114800F0C6FBD7
:101FF000372002F043FF01210D4800F0C1FB6019BA
:102000003044C1190098814207D104F0FF0805F05F
:10201000FF0906F0FF0A07F0FF0B0648C0F8008032
:10202000C0F80490C0F808A0C0F80CB0BDE8F88F64
:1020300000080140A405002070B5002500BF1CE089
:1020400000BF01210F4800F090FB0028F9D01E20AE
:1020500002F014FF6006040E01210A4800F085FB1F
:10206000012801D144F0010400BF0121054800F01E
:102070007CFB0128F9D0681CC5B2082DE0DB2046A6
:1020800070BD00000008014010B5FFF76DFF012191
:102090000B4800F075FB1E2002F0F0FE01210848FD
:1020A00000F06CFB142002F0CBFE0121044800F08C
:1020B00067FB1E2002F0E2FEFFF740FF10BD0000AC
:1020C0000008014070472DE9F04706460F4690464C
:1020D00099460025444631E0791B301B4A4600F002
:1020E000E0FB791B30194A4600F0DBFB3919701B05
:1020F0004A4600F0D6FB391B701B4A4600F0D1FB64
:10210000791930194A4600F0CCFB391B70194A4640
:1021100000F0C7FB391970194A4600F0C2FB791963
:10212000301B4A4600F0BDFB6D1C05FB05F004FBAF
:10213000040108FB08F0814200DD641EA542CBDDEE
:10214000BDE8F08710B580210348FEF723FC00208E
:102150000249088010BD0000B40500209004002052
:1021600070B50546002400BF00F062F980B90DA1EA
:102170000E48FEF71CFB044654B13A212046FEF7F8
:10218000FAFA044614B1641C204670BD0020FCE736
:10219000052002F055FE681E85B2002DE4DC00200B
:1021A000F3E700004950442C00000000B405002073
:1021B00008B50121042001F031FF10208DF8030043
:1021C0008002ADF8000003208DF802006946344813
:1021D00000F040FA00224FF48041314800F0D2FA7A
:1021E000FA2002F02DFE012291032D4800F0CAFAD8
:1021F0004FF4FA7002F024FEFFF7A4FF29A12B4848
:1022000002F054FB03E04FF4FA7002F019FE28A12B
:1022100028A000F0BFF80028F5D128A1234802F03B
:1022200045FB03E04FF4FA7002F00AFE20A126A05D
:1022300000F0B0F80028F5D127A11C4802F036FBC9
:1022400003E04FF4FA7002F0FBFD19A126A000F0A4
:10225000A1F80028F5D128A1144802F027FB03E0DB
:102260004FF4FA7002F0ECFD26A128A000F092F8DD
:102270000028F5D12FA10D4802F018FB03E04FF420
:10228000FA7002F0DDFD2FA130A000F083F80028E5
:10229000F5D13949086039A1044802F007FB08BDAF
:1022A00000100140312E2041540D0A000038014039
:1022B0004F4B000041540D0A00000000322E204315
:1022C000574D4F44450D0A0041542B43574D4F4441
:1022D000453D310D0A000000332E2041542B435759
:1022E000444843500D0A000041542B43574448438F
:1022F000503D312C310D0A00342E2043574A4150B5
:102300000D0A0000474F54204950000041542B4310
:10231000574A41503D225869616F6D695F453431BC
:1023200037222C22373033373033373033220D0AFF
:1023300000000000352E2043495053544152540DA3
:102340000A000000434F4E4E4543540041542B4376
:10235000495053544152543D22544350222C22623E
:10236000726F6B65722E656D71782E696F222C31DC
:102370003838330D0A000000B4012242362E2045C1
:1023800053503832363620496E6974204F4B0D0A4F
:10239000000000002DE9F04104460D46C826204605
:1023A000FEF717FA87B23A4621460D4802F0A2FA24
:1023B0000FE000F03DF848B929460A48FEF7F7F962
:1023C00020B1FFF7BFFE0020BDE8F0810A2002F037
:1023D00037FD3000A6F10101CEB2EAD10120F3E7CA
:1023E00000440040B405002030B589B004460D46D5
:1023F000FFF7A8FE2A4608A101A8FDF7FFFF0AA1E2
:1024000001A8FFF7C7FF20B92A462146074802F076
:1024100071FA09B030BD000041542B434950534577
:102420004E443D25640D0A003E000000004400407B
:102430000A48008808B90120704708480088084900
:102440000988884203D1002004490880F4E7034842
:102450000088034908800120EEE700009004002076
:102460009204002010B50A2002F0EAFC0848006837
:1024700048B90748A430006808B9012000E00020EE
:102480000349A4310860012000F074F810BD000079
:102490000081214210B50A2002F0D2FC0D480068EC
:1024A000A0B90D48006808B9012000E000200A49E1
:1024B000086000200949086006489C30006808B997
:1024C000012000E0002003499C310860022000F058
:1024D00051F810BD048121420000002004000020BA
:1024E0000EB500F08FF90121084601F097FD00219B
:1024F000012000F08FF80120019000208DF80800E5
:102500000C208DF8090001208DF80A0001A800F0C8
:1025100037F80121084600F07DF8022001900020E4
:102520008DF808000C208DF8090001208DF80A00B4
:1025300001A800F025F806208DF8000002208DF893
:10254000010001208DF802008DF80300684601F0BB
:102550008FF907208DF8000002208DF8010000207F
:102560008DF8020001208DF80300684601F080F923
:102570000EBD0000014908607047000014040140CE
:10258000002123498279002A3AD00A46126803685A
:102590009A430B461A600A1D126803689A430B1D82
:1025A0001A60027911440A6803681A430A60184ADB
:1025B0000832126803689A43154B08331A601A1DD3
:1025C000126803689A43124B0C331A604279102A3E
:1025D0000ED11A1F126803681A430D4B08331A6094
:1025E0001A1D126803681A43094B0C331A600DE078
:1025F0000749427911440A6803681A430A6005E0F2
:10260000027911440A6803689A430A60704700001F
:102610000004014030B500228B071C0F0F2303FA82
:1026200004F20B4B8C1053F824309343084C8D105C
:1026300044F8253023468C1053F824308C07240F9F
:1026400000FA04F42343024C8D1044F8253030BDC9
:10265000080001402DE9F041024600250026002037
:1026600000230024002791F803C00CF00F0591F817
:1026700003C00CF0100CBCF1000F03D091F802C0A5
:102680004CEA050591F800C0BCF1000F31D0146888
:1026900000202BE04FF0010C0CFA00F3B1F800C061
:1026A0000CEA03069E4220D183004FF00F0C0CFA77
:1026B00003F7BC4305FA03FC4CEA040491F803C099
:1026C000BCF1280F06D14FF0010C0CFA00FCC2F847
:1026D00014C00AE091F803C0BCF1480F05D14FF0D7
:1026E000010C0CFA00FCC2F810C0401C0828D1D321
:1026F0001460B1F800C0BCF1FF0F34DD5468002055
:102700002EE000F1080C4FF0010808FA0CF3B1F8C4
:1027100000C00CEA03069E4221D183004FF00F0C4B
:102720000CFA03F7BC4305FA03FC4CEA040491F8E5
:1027300003C0BCF1280F05D100F1080C08FA0CF811
:10274000C2F8148091F803C0BCF1480F07D100F122
:10275000080C4FF0010808FA0CF8C2F81080401C71
:102760000828CED35460BDE8F0810246002093686B
:102770000B400BB1012000E0002070474161704721
:10278000016170470AB1016100E04161704700BF1B
:10279000FEE700004CF6CC4001490860704700009D
:1027A0000030004010B500F013F810BD70B50546BC
:1027B0000C4645F2555000F01FF8284600F010F87E
:1027C000204600F013F800F003F8FFF7E3FF70BDB8
:1027D0004AF6AA2001490860704700000030004016
:1027E000014948607047000000300040014988609E
:1027F0007047000000300040014908607047000049
:102800000030004008B50121082001F007FC01203C
:10281000ADF8000048208DF8030069460648FFF730
:1028200019FF0220ADF8000048208DF8030069462A
:102830000148FFF70FFF08BD000C01402DE9F041F2
:1028400007460C4615461E462A2000F043F9384636
:1028500000F020F9284600F01DF92B2000F03AF98D
:10286000204600F017F9304600F014F92C2000F053
:1028700031F9BDE8F08170B50646EF231A46002114
:102880000846FFF7DBFF002408E0002503E03046A0
:1028900000F000F96D1CF02DF9D3641CF02CF4D37A
:1028A00070BD70B504460D4616462B462246294695
:1028B0002046FFF7C3FF304600F0ECF870BD000083
:1028C0002DE9F84F05460F4616469A46DDF828B022
:1028D0000095E02D01D8E02F01D9BDE8F88FA6F1D1
:1028E0002000C6B207F10F03EA1D39462846FFF75C
:1028F000A5FFBAF1000F25D1002420E004EB06105B
:10290000214911F800904FF0000811E009F0010092
:1029100018B1584600F0BEF803E01C48006800F00B
:10292000B9F84FEA69096D1C08F1010000F0FF08D1
:10293000B8F1080FEADB009D7F1C601CC4B2102CAC
:10294000DCDB1FE000241BE004EB06100E4911F84D
:1029500000904FF000080EE009F0010028B139198D
:1029600005EB08005A46FFF79CFF4FEA690908F19A
:10297000010000F0FF08B8F1080FEDDB601CC4B2E5
:10298000102CE1DB00BFA8E7146F000874040020DE
:102990002DE9F05F81468A4693461C46102C00D1F3
:1029A000194D202C00D1194D0AEB0400431E09EBF0
:1029B0000400421E51464846FFF740FF04FB04F066
:1029C000C11700EB5171C1F3C7080BFB0855002775
:1029D00015E000260EE028780121B140084018B12A
:1029E0000A9800F057F803E00948006800F052F830
:1029F000701CC6B2082EEEDB6D1C781CC7B24745B2
:102A0000E7DBBDE8F09F0000340200203400002026
:102A1000740400202DE9F84F06468A4690461D466C
:102A2000DDF828904FF0000B00242FE0281B401EFB
:102A3000C1B20A2002F07AFBB8FBF0F00A21B0FB29
:102A4000F1F201FB1207BBF1000F10D1681EA0428A
:102A50000DDD57B9082101FB0460002320225146F7
:102A6000CDF80090FFF72CFF0EE04FF0010B07F1BF
:102A70003001CAB2082101FB046000235146CDF8A1
:102A80000090FFF71DFF00BF601CC4B2AC42CDDB5D
:102A9000BDE8F88F10B504464FF400410548FFF734
:102AA0006FFEC4F3072000F023F8E0B200F020F836
:102AB00010BD0000000C014010B504464FF4004169
:102AC0000348FFF75DFE204600F012F810BD00003D
:102AD000000C014010B504464FF400410348FFF7D5
:102AE0004DFE204600F004F810BD0000000C01402F
:102AF00070B504464FF480511448FFF73FFE00259F
:102B00001BE04FF400511148FFF738FE04F080003D
:102B100028B14FF480410D48FFF732FE04E04FF436
:102B200080410A48FFF72AFE4FF400510748FFF79B
:102B300027FE6006040E681CC5B2082DE1DB4FF4C9
:102B400080510248FFF71CFE70BD0000000C0140E0
:102B500008B50121102001F061FA4FF40050ADF8E2
:102B6000000010208DF8030003208DF80200694654
:102B70000448FFF76FFD4FF400510248FFF700FED5
:102B800008BD00000010014008B50121082001F037
:102B900045FA4FF40070ADF8000010208DF80300E6
:102BA00003208DF8020069460448FFF753FD4FF4F7
:102BB00000710248FFF7E2FD08BD0000000C014073
:102BC00008B50121082001F029FA4FF47C40ADF846
:102BD000000010208DF8030003208DF802006946E4
:102BE0008348FFF737FD4FF47C418148FFF7C8FD6C
:102BF0004FF400617E48FFF7C1FD142002F020F978
:102C00004FF400617A48FFF7BBFD142002F018F979
:102C10004FF480617648FFF7B3FD1120FFF75AFFAC
:102C2000782002F00DF93620FFF754FF0020FFF75F
:102C300043FF3A20FFF74EFF5520FFF73DFFB2203C
:102C4000FFF748FF1F20FFF737FF1F20FFF734FF74
:102C50000020FFF731FF3320FFF72EFF3320FFF76F
:102C60002BFFB720FFF736FF1220FFF725FFBB2011
:102C7000FFF730FF3520FFF71FFFC020FFF72AFFC7
:102C80002C20FFF719FFC220FFF724FF0120FFF7D8
:102C900013FFC320FFF71EFF1520FFF70DFFC42011
:102CA000FFF718FF2020FFF707FFC620FFF712FFEE
:102CB0001320FFF701FFD020FFF70CFFA420FFF740
:102CC000FBFEA120FFF7F8FED620FFF703FFA120AF
:102CD000FFF7F2FEE020FFF7FDFEF020FFF7ECFE2D
:102CE0000620FFF7E9FE0D20FFF7E6FE0B20FFF7B9
:102CF000E3FE0A20FFF7E0FE0720FFF7DDFE2E20AF
:102D0000FFF7DAFE4320FFF7D7FE4520FFF7D4FE9A
:102D10003820FFF7D1FE1420FFF7CEFE1320FFF777
:102D2000CBFE2520FFF7C8FE2920FFF7C5FEE120D6
:102D3000FFF7D0FEF020FFF7BFFE0720FFF7BCFE35
:102D40000A20FFF7B9FE0820FFF7B6FE0720FFF7BD
:102D5000B3FE2320FFF7B0FE2E20FFF7ADFE332099
:102D6000FFF7AAFE4420FFF7A7FE3A20FFF7A4FED4
:102D70001620FFF7A1FE1720FFF79EFE2620FFF783
:102D80009BFE2C20FFF798FEE420FFF7A3FE1D20FA
:102D9000FFF792FE0020FFF78FFE0020FFF78CFE6A
:102DA0002120FFF797FE2A20FFF794FE0020FFF76F
:102DB00083FE0020FFF780FE0020FFF77DFEEF205E
:102DC000FFF77AFE2B20FFF785FE0020FFF774FE49
:102DD0000020FFF771FE0020FFF76EFEEF20FFF7E7
:102DE0006BFE2C20FFF776FE2920FFF773FE08BD4F
:102DF000000C014010B50446207B012802D1206858
:102E0000FDF7ADFA002020606060A060207310BD67
:102E10000246002301230DE002F07F000870D20972
:102E20002AB1087840F080000870491C01E018467B
:102E300070475B1C042BEFDD4FF0FF30F8E770B5F7
:102E400004460E460025206898B9012020733046BC
:102E5000FDF756FA20602068E0B100206060A660AF
:102E600003E00020216848556D1CA068A842F8D8EE
:102E700010E00220207303E00020216848556D1CFB
:102E8000A068A842F8D800206060A068B04201D2D3
:102E90000020206070BD00002DE9FF4F83B0824606
:102EA0008B469146159C0025002002900F2701902B
:102EB0004846FDF78EFC0FFA80F8B9F1000F03D1F8
:102EC000012007B0BDE8F08F08F10200384487B256
:102ED000109808B145F00205129878B145F0040544
:102EE0001298FDF776FCC0B202901398FDF771FCC2
:102EF00001460298001D0844384487B2119820B159
:102F0000012804D0022808D104E000BF07E045F002
:102F10000C0504E045F0140501E00220D1E700BFF4
:102F2000149808B145F02405BAF1000F02D0BBF1A6
:102F3000000F01D10320C4E745F0C0055046FDF75E
:102F400048FC06465846FDF744FC3044001D384412
:102F500087B239462046FFF772FF206808B904207F
:102F6000AFE739462068FDF715FD10216268501C57
:102F7000606020688154D4E90023D118781FFFF7DE
:102F800047FF00B201900198002804DA2046FFF7BD
:102F900031FF052095E761680198084460600021D1
:102FA0006268501C60602068815404216268501C73
:102FB0006060206881544D216268501C6060206808
:102FC000815451216268501C6060206881545421F2
:102FD0006268501C6060206881546268501C6060A8
:102FE0002068815404216268501C6060206881540C
:102FF0006168481C6060206845540698010A626850
:10300000501C6060206881540698C1B26268501CF0
:10301000606020688154C8F307216268501C6060BA
:10302000206881546268501C6060206800F802804B
:10303000D4E90012881842464946FDF7A6FB6068AD
:103040004044606005F00400B8B30026139808B946
:1030500038A013901298FDF7BCFB86B2310A626863
:10306000501C6060206881546268501C6060206859
:103070008654D4E90012881832461299FDF785FB70
:103080006068304460601398FDF7A3FB86B2310A94
:103090006268501C6060206881546268501C6060E7
:1030A00020688654D4E90012881832461399FDF737
:1030B0006CFB60683044606000BF05F08000C8B100
:1030C0005046FDF786FB86B2310A6268501C60608C
:1030D000206881546268501C606020688654D4E97E
:1030E0000012881832465146FDF74FFB60683044A5
:1030F000606000BF05F04000C8B15846FDF769FBAD
:1031000086B2310A6268501C60602068815462682F
:10311000501C606020688654D4E90012881832463A
:103120005946FDF732FB60683044606000BF002004
:10313000C7E60000000000002DE9FF4F83B0834682
:1031400017469946139C0025002600200290019006
:103150008046BBF1000F03D1012007B0BDE8F08F1E
:1031600000260AE00498805D232803D00498805D3F
:103170002B2801D10220F0E7761C0498805D0028FE
:10318000F0D148F03008119808B148F0010806EB7A
:103190000900851C109820B1012804D002280AD10A
:1031A00005E000BF09E048F00208AD1C05E048F06A
:1031B0000408AD1C01E00320CFE700BF8FB33878CF
:1031C000022821D14FF0000A00BF50460AF1010A3F
:1031D000385C7D28F9D1AAF1030A0AF107000290B0
:1031E0000298A9EB000AE81CA0EB0A012046FFF7B1
:1031F00026FE206808B90420AFE7EA1CA2EB0A010A
:103200002068FDF7C7FB19E0691D2046FFF717FE90
:10321000206808B90420A0E7691D2068FDF7BAFB03
:103220000CE0FFE7691D2046FFF709FE206808B99A
:10323000042092E7691D2068FDF7ACFB6168481C1B
:103240006060206800F80180D4E9000281182846F7
:10325000FFF7DEFD01900198002804DA2046FFF711
:10326000C9FD052079E76168019808446060C6F3EC
:1032700007216268501C6060206881546268501C9D
:10328000606020688654D4E9001288183246049998
:10329000FDF77BFA606830446060109860B14FEAD7
:1032A0001B216268501C6060206881546268501C59
:1032B0006060206800F802B0C7B1387802280BD1EE
:1032C000D4E9001288183946029AFDF7ECFA6168D1
:1032D00002980844606009E0D4E9001288184A4660
:1032E0003946FDF7E0FA606848446060002034E742
:1032F00070B505460C4604212046FFF7A0FD206866
:1033000008B9012070BD70216268501C606020689F
:10331000815402216268501C606020688154291227
:103320006268501C6060206881546268501C606054
:10333000206885540020E5E770B505460C46042159
:103340002046FFF77CFD206808B9012070BD62218E
:103350006268501C60602068815402216268501CC1
:1033600060602068815429126268501C6060206887
:1033700081546268501C6060206885540020E5E735
:103380002DE9FF5F8046174699460E9C0026B246FF
:10339000B3460025B8F1000F03D1012004B0BDE809
:1033A000F09F0BE057F8250008B90220F6E757F820
:1033B0002500FDF70EFA0644681CC5B24D45F1DB49
:1033C00009EB4900801C00EB060A0AF105012046C2
:1033D000FFF735FD206808B90320DFE78221626826
:1033E000501C606020688154D4E900028118504666
:1033F000FFF70EFD0FFA80FBBBF1000F04DA204649
:10340000FFF7F8FC0420C9E76068584460604FEAA1
:1034100018216268501C6060206881546268501CEA
:103420006060206800F80280002524E057F825003D
:10343000FDF7CFF90646C6F307216268501C6060AD
:10344000206881546268501C606020688654D4E90A
:103450000023D01857F825103246FDF796F960681A
:10346000304460600198C1B26268501C606020689E
:103470008154681CC5B24D45D8DB00208EE7F0B5FD
:1034800004460D462646012300201060002114E06A
:10349000775C07F07F07106807FB03001060705C23
:1034A00000F0800008B9481CF0BDDB01B3F5001F37
:1034B00002D36FF00100F7E7491CA942E8DB4FF0A7
:1034C000FF30F1E72DE9F84380460C4615461E46CD
:1034D0002F2108F10600FDF74EF907460020009065
:1034E00017B90120BDE8F8837F1C6A46042108F162
:1034F0000100FFF7C4FF2520FCF702FF20602068D1
:1035000008B90220EEE725212068FDF743FA2422BE
:1035100039462068FDF7C7F9243700982C383080E9
:103520003188481CFCF7ECFE2860286820B9206828
:10353000FCF715FF0320D5E73288511C2868FDF7FA
:1035400029FA328839462868FDF7ADF90020C9E725
:1035500001464878022801D001207047887810B1D0
:103560008878012801D1C878F7E7FF20F5E7000047
:103570002DE9FC5F81460D4614461E46DDE90C8BA5
:1035800099F8000000F00F0A002001900AF00800EE
:103590000090CAF341008BF8000001AA042109F150
:1035A0000100FFF76CFF4844471C0198022802D332
:1035B0000AF0010010B1FF20BDE8FC9F787839784F
:1035C00040EA012020802088801C0199884201D98E
:1035D000FF20F1E754A1B81CFDF7E9F808B10F206E
:1035E000EAE79BF8000020B101283DD0022877D1FE
:1035F0003BE0009808B1FF20DEE72188481CFCF77B
:103600007FFE2860286808B9FF20D5E72288511C72
:103610002868FDF7BFF92288B91C2868FDF743F92F
:103620000198801E2188401AA8F80000B8F8001000
:10363000481CFCF765FE3060306820B92868FCF74C
:103640008EFEFF20B8E7B8F80020511C3068FDF767
:10365000A1F9B8F80020B4F800C0BB1C0CEB0301C2
:103660003068FDF720F94FE000BF2088801C0199E9
:10367000884201D9FF209FE72088C01C395C208840
:10368000801C385C41EA00210E9801800E9808B930
:10369000FF2091E72188481CFCF732FE286028684B
:1036A00008B9FF2088E72288511C2868FDF772F9C5
:1036B0002288B91C2868FDF7F6F80198001F2188B8
:1036C000401AA8F80000B8F80010481CFCF718FED3
:1036D0003060306828B92868FCF741FEFF206BE7AE
:1036E00010E0B8F80020511C3068FDF753F9B8F825
:1036F0000020B4F800C03B1D0CEB03013068FDF75F
:10370000D2F801E0FF2057E700BF2B212846FDF744
:1037100032F820B923212846FDF72DF808B1FF2003
:103720004AE7002048E7000024637265710000004A
:1037300001464878022801D001207047887820B9D6
:10374000C8780A2801D10020F7E70120F5E70146F3
:103750004878022801D001207047887820B9C878BD
:103760000A2801D10020F7E70120F5E70146487853
:10377000022801D001207047887820B9C8780A282B
:1037800001D10020F7E70120F5E702465078022832
:1037900001D0012070479078B0EB112F05D1D0787F
:1037A000CBB2984201D10020F4E70120F2E70000FB
:1037B000F8B50446FF2720780511012D01DB0E2DF9
:1037C00001DD3846F8BD032D24D1002000906A4663
:1037D0000421601CFFF753FE2044461C0098022879
:1037E00003D3207800F0010008B1FF20EAE77078E9
:1037F000317840EA0120801C0099884201D9FF20DD
:10380000E0E706A1B01CFCF7D2FF08B10F2700E0EB
:10381000032700E02F463846D4E700002463726592
:10382000710000000146FF208A78A2B9CA78142AE4
:1038300011D10A7932B1012A05D0022A04D0802A96
:1038400006D103E000BF00BF002003E0012001E03B
:10385000022000BF00BF7047014601208A781AB9D4
:10386000CA781E2A00D10020704700BFFEE77047CB
:1038700070B5002100230F22C47804B3154C2468CE
:1038800004F4E064C4F5E064210AC1F10403CA4011
:10389000447804FA03F184781440214309010E4C62
:1038A0000678A155047804F01F050124AC40057882
:1038B0006D11AD0005F1E025C5F8004109E004787F
:1038C00004F01F050124AC40044D0678761145F83C
:1038D000264070BD0CED00E000E400E080E100E077
:1038E00002490143024A1160704700000000FA05D6
:1038F0000CED00E030B58BB00020079008900990E7
:103900000A90012530A032A333A235A1009040488F
:1039100000F0CCFF07A8002102910391CDE904102B
:1039200000912B0228A2019129A12BA0FFF7B4FA44
:10393000002842D1089A91B20798FEF755FDFA2067
:10394000FEF70EFC0446002C33D02046FFF730FF74
:1039500002282ED12046FFF7FBFD062823D2DFE800
:1039600000F003090E13181D2AA1294800F09EFF3C
:1039700000251DE02CA1264800F098FF18E031A199
:10398000234800F093FF13E037A1214800F08EFF99
:103990000EE03DA11E4800F089FF09E043A11C484C
:1039A00000F084FF04E04CA1194800F07FFF00BF45
:1039B00000BF07A8FFF71EFA03E04EA1144800F06D
:1039C00075FF28460BB030BD3536313638333900F7
:1039D000746573740000000037373234370000001C
:1039E0004F6E654E65745F4465764C696E6B0D0A6B
:1039F00050524F49443A2025732C09415549463AC3
:103A00002025732C0944455649443A25730D0A0074
:103A100000380140546970733A09C1ACBDD3B3C9D1
:103A2000B9A60D0A000000005741524E3A09C1AC38
:103A3000BDD3CAA7B0DCA3BAD0ADD2E9B4EDCEF302
:103A40000D0A00005741524E3A09C1ACBDD3CAA776
:103A5000B0DCA3BAB7C7B7A8B5C4636C69656E74A8
:103A600069640D0A000000005741524E3A09C1AC8A
:103A7000BDD3CAA7B0DCA3BAB7FECEF1C6F7CAA7BA
:103A8000B0DC0D0A000000005741524E3A09C1ACAB
:103A9000BDD3CAA7B0DCA3BAD3C3BBA7C3FBBBF2D9
:103AA000C3DCC2EBB4EDCEF30D0A00005741524E19
:103AB0003A09C1ACBDD3CAA7B0DCA3BAB7C7B7A88F
:103AC000C1B4BDD328B1C8C8E7746F6B656EB7C702
:103AD000B7A8290D0A0000004552523A09C1ACBDF1
:103AE000D3CAA7B0DCA3BACEB4D6AAB4EDCEF30D38
:103AF0000A0000005741524E3A094D5154545F504C
:103B000061636B6574436F6E6E65637420466169B3
:103B10006C65640D0A00000070B588B005460C465F
:103B20000020049005900690079023462A4610A195
:103B3000174800F0BBFE2046FCF74BFE064604A8E3
:103B40000121002200923346CDE901210390224653
:103B500029460A20FFF7F0FA38B9059A91B204987D
:103B6000FEF742FC04A8FFF745F908B070BD00005D
:103B70005075626C69736820546F7069633A2025D0
:103B8000732C204D73673A2025730D0A0000000046
:103B9000003801402DE9F04F8FB0814600200B9096
:103BA0000C900D900E900A90099008900790804616
:103BB00006900026002482464846FFF7F9FD80461D
:103BC000A8F103000D2872D2DFE800F01C727B958B
:103BD000B1D6BAD6C8D6D6D6070007AB0AAA09A965
:103BE0004846FFF76FFC06465EB9BDF81C00009022
:103BF0007BA18448DDE9092300F058FE0BA8FFF7FC
:103C0000F9F8BCE0804806A907AA0AABCDE9002173
:103C1000029008AA09A94846FFF7AAFC0646002E0A
:103C200044D1BDF81C000A99CDE90010BDF8203040
:103C300076A17448099A00F039FE0A9801F07EF8DE
:103C4000074647B901F054F883465A467EA16D48AD
:103C500000F02CFE27E081A1384601F04FF8050066
:103C60000DD0686928B101207E4908607E4908604E
:103C700005E001207B49086000207B4908607BA1AA
:103C8000384601F03BF805000DD0686930B10120DD
:103C90007849086000207849086004E000207549F0
:103CA000086075490860384600F0F6FF67E063E099
:103CB0004846FFF73DFD18B970A1524800F0F6FDE7
:103CC0005DE04846FFF752FDA0B974A14D4800F0F1
:103CD000EDFD0BA90A20FFF72FFB58B975A1494844
:103CE00000F0E4FD0C9A91B20B98FEF77DFB0BA857
:103CF000FFF780F843E0444801884846FFF745FD58
:103D0000A0B972A13F4800F0D1FD0BA90A20FFF72E
:103D1000EFFA58B973A13B4800F0C8FD0C9A91B274
:103D20000B98FEF761FB0BA8FFF764F827E0484605
:103D3000FFF70DFD18B972A1324800F0B7FD1EE083
:103D40004846FFF76FFD20B973A12E4800F0AEFD85
:103D500003E078A12B4800F0A9FD10E04846FFF7EA
:103D60007BFD20B97AA1274800F0A0FD03E07FA1E8
:103D7000244800F09BFD02E04FF0FF3600BF00BF7B
:103D8000FEF7E0F9701C10B90FB0BDE8F08F7D218F
:103D90000A98FCF7F0FC0446A4B1701C90B1641CB6
:103DA00006E014F8012B50460AF1010A03A90A544F
:103DB0002078302802DB20783928F2DD03A8FCF7D0
:103DC000CDFC8246B8F10F0F02D0B8F1030F05D138
:103DD0000998FCF7C4FA0A98FCF7C1FA00BFD3E7C8
:103DE000636D6469643A2025732C207265713A20F2
:103DF00025732C207265715F6C656E3A2025640D09
:103E00000A0000000038014094040020746F7069BB
:103E1000633A2025732C20746F7069635F6C656E44
:103E20003A2025642C207061796C6F61643A2025FA
:103E3000732C207061796C6F61645F6C656E3A20E1
:103E400025640D0A000000004552524F5220626561
:103E5000666F7265205B25735D0A00004C45445F08
:103E60005357000010000020A481214242454550D4
:103E70005F53570000000020040000205469707355
:103E80003A094D515454205075626C69736820533F
:103E9000656E64204F4B0D0A00000000546970737A
:103EA0003A09526576205075626C69736852656391
:103EB0000D0A0000546970733A0953656E6420500E
:103EC00075626C69736852656C0D0A005469707391
:103ED0003A09526576205075626C69736852656C58
:103EE0000D0A0000546970733A0953656E642050DE
:103EF00075626C697368436F6D700D0A0000000095
:103F0000546970733A09526576205075626C697312
:103F100068436F6D700D0A00546970733A094D5112
:103F2000545420537562736372696265204F4B0D60
:103F30000A000000546970733A094D5154542053DB
:103F40007562736372696265204572720D0A0000C2
:103F5000546970733A094D51545420556E5375622B
:103F6000736372696265204F4B0D0A005469707368
:103F70003A094D51545420556E53756273637269FA
:103F80006265204572720D0A0000000070B586B0AF
:103F900004460D46002600200290039004900590F0
:103FA00007E054F826200DA1124800F07FFC701C99
:103FB000C6B2AE42F5DB02A82B4622460021009095
:103FC0001420FFF7DDF938B9039A91B20298FEF791
:103FD0000BFA02A8FEF70EFF06B070BD53756273B0
:103FE000637269626520546F7069633A2025730DAE
:103FF0000A000000003801407047000029B1064A5D
:10400000D2690243044BDA6104E0034AD269824375
:10401000014BDA61704700000010024029B1064AE6
:1040200092690243044B9A6104E0034A9269824315
:10403000014B9A61704700000010024030B500212A
:104040000022002400232D4D6D6805F00C0121B1E4
:10405000042905D0082923D105E0294D056022E077
:10406000274D05601FE0254D6D6805F47012234D46
:104070006D6805F48034022505EB92421CB9214D90
:10408000554305600BE01D4D6D6805F400351DB10D
:104090001C4D5543056002E0194D5543056002E093
:1040A000174D056000BF00BF144D6D6805F0F001AD
:1040B0000909154D6B5C0568DD4045600F4D6D6865
:1040C00005F4E061090A104D6B5C4568DD408560D0
:1040D0000A4D6D6805F46051C90A0B4D6B5C45686B
:1040E000DD40C560054D6D6805F44041890B074D05
:1040F0006B5CC568B5FBF3F5056130BD001002408F
:1041000000127A0000093D007C0400208C0400208D
:10411000704710B500F002F810BD00000CB500208B
:10412000019000903348006840F4803031490860C5
:1041300000BF3048006800F4003000900198401C37
:104140000190009818B90198B0F5A06FF1D12948F5
:10415000006800F4003010B10120009001E0002060
:1041600000900098012843D12348006840F01000D7
:10417000214908600846006820F0030008600846EE
:10418000006840F0020008601A4840681949486019
:104190000846406848600846406840F480604860CF
:1041A0000846406820F47C1048600846406840F4A7
:1041B000E81048600846006840F08070086000BF62
:1041C0000C48006800F000700028F9D009484068E9
:1041D00020F00300074948600846406840F00200AC
:1041E000486000BF0348406800F00C000828F9D17F
:1041F0000CBD00000010024000200240042808D13D
:104200004FF0E021096941F004014FF0E022116113
:1042100007E04FF0E021096921F004014FF0E022AE
:10422000116170477047000010B51348006840F0F6
:1042300001001149086008464068104908400E49CD
:104240004860084600680E4908400B490860084667
:10425000006820F4802008600846406820F4FE00D2
:1042600048604FF41F008860FFF753FF4FF0006075
:104270000449086010BD0000001002400000FFF873
:10428000FFFFF6FE08ED00E008B50121880700F009
:10429000DAF800283FD00121880700F0C5F84FF672
:1042A000FF7000901C480223202182683020FEF716
:1042B000B1FB4FF6FF700090174801232021C26820
:1042C0005020FEF7A7FB4FF6FF7000901248022324
:1042D000302102680846FEF79DFB4FF6FF70009004
:1042E0000D480123302142685020FEF793FB4FF622
:1042F000FF70012300900948402102686020FEF70A
:1043000089FB4FF6FF700123009005485021026899
:104310006020FEF77FFB08BDA40500200000002000
:10432000100000207FB505460C4601210846FFF726
:1043300065FEA8B2ADF80800A0B2ADF804000020F8
:10434000ADF80A00ADF8060001A94FF0804000F07A
:1043500095F801221146900700F086F81C208DF890
:10436000000000208DF8010003208DF802000120DC
:104370008DF803006846FFF77BFA0121880700F0FB
:1043800056F87FBD10B501210B4800F05CF890B1E4
:104390000121094800F048F80848006840B1084881
:1043A000006808B9012000E000200549086002E02B
:1043B00000200349086010BD0004004000000020F8
:1043C000A08121427FB505460C4601210220FFF75E
:1043D00015FEA8B2ADF80800A0B2ADF804000020A8
:1043E000ADF80A00ADF8060001A90E4800F046F845
:1043F000012211460B4800F037F81D208DF800000F
:1044000000208DF8010003208DF8020001208DF8B6
:1044100003006846FFF72CFA0121024800F007F874
:104420007FBD000000040040CA430282704721B1F2
:10443000028842F00102028004E002884FF6FE7317
:104440001A400280704730B5024600200023002445
:10445000158A05EA0103958905EA010413B10CB137
:10446000012000E0002030BD1AB183890B43838115
:1044700002E083898B438381704700000022028819
:104480001D4B98420ED01D4B98420BD0B0F1804F7F
:1044900008D01B4B984205D01A4B984202D01A4BB9
:1044A000984204D14FF68F731A404B881A43174B2A
:1044B000984207D0164B984204D04FF6FF431A405B
:1044C000CB881A4302808B8883850B8803850A4B2F
:1044D00098420BD0094B984208D00E4B984205D019
:1044E0000D4B984202D00D4B984201D10B7A0386B6
:1044F0000123838270470000002C014000340140FA
:104500000004004000080040000C00400010004083
:1045100000140040004001400044014000480140B8
:1045200010B540F22551044800F050F818B1202190
:10453000014800F029F810BD0038014010B540F2E4
:1045400025510E4800F042F8B0B10D48008880288F
:1045500002D300200A4908800848001D0088C1B223
:10456000074802880088401C054B18800548815484
:104570002021024800F008F810BD0000004400406F
:1045800090040020B405002001F40072B2F5007F11
:1045900000D100BFCA430280704721B1828942F432
:1045A0000052828104E082894DF6FF731A408281B5
:1045B000704702460020B1F5007F00D100BF13888C
:1045C0000B400BB1012000E00020704770B502469F
:1045D000002400230025002040F66A16B14200D1D5
:1045E00000BFC1F3421501F01F03012606FA03F3D1
:1045F000012D02D19689334006E0022D02D1168AA0
:10460000334001E0968A33400C12012606FA04F486
:104610001688344013B10CB1012000E0002070BDB9
:10462000F0B50346002400260025002040F66A1756
:10463000B94200D100BF1846C1F3421401F01F0671
:10464000012707FA06F5012C01D10C3004E0022CF9
:1046500001D1103000E014301AB107682F43076011
:1046600002E00768AF430760F0BD00002DE9F047A6
:1046700086B005460E460024A24600BFA14600278C
:10468000B08900B100BF2F462C8A4CF6FF70044061
:10469000F08804432C82AC894EF6F3100440B088B5
:1046A00031890843718908430443AC81AC8A4FF6D1
:1046B000FF400440B0890443AC8201A8FFF7BEFC70
:1046C0001F48874202D1DDF810A001E0DDF80CA000
:1046D000A88900F4004040B10AEBCA0000EB0A10C0
:1046E00031684900B0FBF1F807E00AEBCA0000EBC3
:1046F0000A1031688900B0FBF1F86420B8FBF0F0D3
:1047000004012009642101FB1089A88900F40040FC
:1047100040B1322000EBC900B0FBF1F000F007001F
:10472000044308E0322000EB09106421B0FBF1F0F3
:1047300000F00F0004432C8106B0BDE8F0870000B4
:1047400000380140C1F308028280704700BFFEE7D5
:1047500010B586B0044601210420FFF75FFC01215B
:104760008803FFF75BFC18208DF817004FF40070EA
:10477000ADF8140003208DF8160005A91E48FDF7BA
:1047800069FF04208DF817000002ADF81400032023
:104790008DF8160005A91848FDF75CFF019400206C
:1047A000ADF810000C20ADF80E000020ADF80C00A4
:1047B000ADF80A00ADF8080001A91048FFF756FF50
:1047C00001210E48FFF7E9FE012240F225510B4876
:1047D000FFF726FF25208DF8000001208DF803004B
:1047E00000208DF8010002208DF802006846FFF7D6
:1047F0003FF806B010BD000000080140003801403D
:1048000010B586B0044601210420FFF707FC012102
:104810004804FFF7F3FB18208DF817000420ADF8CB
:10482000140003208DF8160005A91E48FDF712FF9D
:1048300004208DF817000820ADF8140003208DF82F
:10484000160005A91748FDF705FF01940020ADF8F3
:1048500010000C20ADF80E000020ADF80C00ADF8F3
:104860000A00ADF8080001A90F48FFF7FFFE01217B
:104870000D48FFF792FE012240F225510A48FFF74A
:10488000CFFE26208DF8000001208DF803000020C7
:104890008DF801008DF802006846FEF7E9FF06B0CA
:1048A00010BD000000080140004400400FB430B5C6
:1048B000CBB0054601AC50A800904FF4947101A80C
:1048C000009B4F9AFBF780FD002000900BE014F84E
:1048D000011B2846FFF736FF00BF40212846FFF79F
:1048E00068FE0028F9D020780028F0D14BB030BC09
:1048F0005DF814FB2DE9F04107460C4615460026ED
:104900000DE014F8011B3846FFF71CFF00BF4021E3
:104910003846FFF74EFE0028F9D0701C86B2AE4232
:10492000EFDBBDE8F081490050EAC12018BF042048
:104930004A0D18BF40F0010040F2FF72B2EB515F28
:1049400008BF40F00200012808BF052070472DE98C
:10495000F0414F1E00EBC7010446D1E900011546A6
:104960001E4637F006020DD02A46334601F044FFBA
:104970007F1E04EBC703D3E9002301F0A7FC37F047
:104980000602F1D1022F25D0042F13D0062F18BF15
:10499000BDE8F0812A46334601F02EFFD4E90A2310
:1049A00001F094FC2A46334601F026FFD4E908239F
:1049B00001F08CFC2A46334601F01EFFD4E90623A1
:1049C00001F084FC2A46334601F016FFD4E90423A3
:1049D00001F07CFC2A46334601F00EFFD4E90223A5
:1049E00001F074FC2A46334601F006FFD4E90023A7
:1049F000BDE8F04101F06ABC0022134610460149AF
:104A000001F020BD0000F03F01F060BC0022134621
:104A10001046114601F016BD40F2013200204FF061
:104A2000E04102F02DBA0000024A0020110702F016
:104A300027BA000001FDFFFF30380A2801D201200B
:104A400070470020704708B54FF6FF701023002212
:104A5000202100901046FDF79BFF4FF6FF701023BA
:104A60000122202100901846FDF792FF4FF6FF70BB
:104A700010230222302100900020FDF789FF4FF61D
:104A8000FF7010230322302100901846FDF780FFAD
:104A90004FF6FF7010230422202100900846FDF7F6
:104AA00077FF4FF6FF702023002211460090382038
:104AB000FDF76EFF4FF6FF702023012200210090CA
:104AC0005820FDF765FF4FF6FF70202302220021DA
:104AD00000907820FDF75CFF4FF6FF702023032243
:104AE000002100909820FDF753FF4FF6FF70102330
:104AF0000422302100902020FDF74AFF4FF6E0739A
:104B00000822E8219820FDF7DEFA4FF6FF70102307
:104B10000522E0210090A020FDF73AFF4FF6FF703C
:104B200010230622E0210090B020FDF731FF4FF660
:104B3000FF7010230722E0210090C020FDF728FF1E
:104B40004FF6FF7010230822E0210090D020FDF7DF
:104B50001FFF4FF6FF7010230922E0210090084646
:104B6000FDF716FF4FF6FF7010230A222021009058
:104B70006020FDF70DFF4FF6FF7000232522302146
:104B800000906820FDF79CFE4FF6FF7000232E2258
:104B9000202100904020FDF793FE4FF6FF70002388
:104BA0002E22302100904020FDF78AFE4FF6FF7044
:104BB00010230C22402100900020FDF7E9FE4FF663
:104BC000FF7010230D22402100901846FDF7E0FEF3
:104BD0004FF6FF7010230E22402100902020FDF799
:104BE000D7FE4FF6FF7010230F2240210090302097
:104BF000FDF7CEFE4FF6FF7010231A4640210090BD
:104C00000846FDF7C5FE4FF6FF7010230422402131
:104C100000905020FDF7BCFE4FF6FF7010234C2291
:104C2000502100900020FDF74BFE4FF6FF7010233F
:104C30004522502100900820FDF742FE4FF6FF70FC
:104C400010234422502100901846FDF739FE4FF6FC
:104C5000FF7010231122502100902020FDF798FEB4
:104C60004FF6FF7010230F22502100903020FDF7E7
:104C70008FFE4FF6FF7010231A46502100904020FF
:104C8000FDF786FE4FF6FF7010230422502100909E
:104C90000846FDF77DFE08BD70B5044622E0256894
:104CA000A08900F4807020B9A06810B1A068FFF757
:104CB000F3FFA08900F4807028B9206918B10B496E
:104CC000206909688847A08900F4007028B9206A23
:104CD00018B10649206A09688847204603490968CF
:104CE00088472C46002CDAD170BD0000A0040020BB
:104CF00001480068704700009804002070B5054620
:104D00000E46AC6800E024682CB13146206A00F001
:104D10004FF80028F7D1204670BD000010B52820BC
:104D200005490968884704461CB128212046FBF73D
:104D300053FE204610BD00009C04002010B5044620
:104D400000221146204600F001F810BD2DE9F04781
:104D500080460D4616460024FFF7E0FF0746002078
:104D6000124908600FB9BDE8F087404601F052FAD9
:104D700081464946384600F013FD044624B93846BA
:104D8000FFF78AFF0020EEE766B1204601F042FA05
:104D90000446207830B13846FFF77EFF03480460B0
:104DA0000020E0E705B12C603846DCE798040020DD
:104DB00070B504460D462CB9AC4201D0012070BD3F
:104DC0000020FCE70DB90120F9E705E0207808B9DB
:104DD0000020F4E7641C6D1C2078FBF7E7FA064618
:104DE0002878FBF7E3FA8642F0D02078FBF7DEFA6A
:104DF00006462878FBF7DAFA301AE0E710B56FF0CC
:104E00000400FFF7FBF90A4800680A49B0FBF1F01B
:104E1000094908700846007800EB4001C1EBC0105A
:104E20004FF6FF7101EAC0000449088010BD000080
:104E30002000002000127A00780400207A0400206C
:104E400001460D4A12884A434FF0E0235A6100227E
:104E50009A6101221A6100BF4FF0E022106900F050
:104E600001021AB100F48032002AF5D000224FF07E
:104E7000E0231A619A6170477A0400200146114AC2
:104E800012784A434FF0E0235A6100229A611A4691
:104E9000126942F001021A6100BF4FF0E02210696E
:104EA00000F001021AB100F48032002AF5D04FF070
:104EB000E022126922F001024FF0E0231A61002281
:104EC0009A617047780400201FB5FFF797FFFDF740
:104ED0005BFEFDF73DFEFDF713F8FDF7D5F8FDF796
:104EE0006FFE4FF4A060FEF7FBFCFDF7F9FA00201F
:104EF000FDF7C1FCFFF7A7FDFDF784FC4FF4E1309F
:104F0000FFF726FC4FF4E130FFF77AFC41F61F4132
:104F100041F28730FFF706FA41F61F4140F6B730FD
:104F2000FFF750FA40F6B8310720FDF73FFC4DA1DE
:104F30005248FFF7BBFCFDF73BF9FEF7DBFC012015
:104F40004F4908604FF4FA70FFF77AFF00204D498F
:104F5000C1F8A00101214C48FFF718F880E0FDF7E7
:104F600021FC4A484AA102684448FFF79FFC4D488B
:104F70000088401C80B24B49088028283DD1FDF7AD
:104F800009F84948C06848498968CDE90010464891
:104F9000436846A102683948FFF788FC4FF4007166
:104FA0004848FDF7E2FB48490860384800680A288D
:104FB00012D13D48006855280BDA3B488068232809
:104FC00007DA39488068002803DD00203F4908607F
:104FD00002E001203D4908602C4800680A2804DAF4
:104FE0002A480068401C2949086000202D49088093
:104FF00037480068401C3649086035480068052875
:105000001FD134A11D48FFF751FC304802682E48DB
:1050100003682548C06824498968CDE90232CDE992
:1050200000102148436830A102683D48FBF7E6F9CB
:105030003B493C48FEF770FD002025490860FDF71C
:1050400081F80320FDF78CF83749086008460068AE
:1050500018B108460068FEF79DFD0A20FFF7F0FE34
:105060007DE70000686172647761726520696E692E
:1050700074206973206F6B0A000000000038014043
:10508000A081214200802142140000200400002061
:1050900064687431315F666C61675F667265653A3A
:1050A0002564000018000020A405002068756D69C3
:1050B0003A25642E2564202074656D703A25642E8F
:1050C00025640A00000C01401000002000000020B0
:1050D0000C0000204F6E654E65745F5075626C6900
:1050E00073680D0A000000007B2268756D69223A22
:1050F00025642E25642C2274656D70223A25642E59
:1051000025642C224C45445F5357223A25642C22B7
:10511000424545505F5357223A25647D0000000008
:10512000A40400200C6F00081C00002010B50246EB
:10513000012000E050430B00A1F10104E1B2F9D1DC
:1051400010BD00002DE9F04705460C4620785B288D
:1051500004D0264804600020BDE8F0870520E86000
:10516000601C01F057F8044620785D2801D1601CCE
:10517000F2E7FFF7D3FD0646A860A86808B900204B
:10518000EAE7204601F046F880464146304600F006
:1051900007FB074601F03EF804460CB90020DBE7A8
:1051A00017E0FFF7BBFD070000D1D5E737607E6051
:1051B0003E46601C01F02EF881464946304600F01C
:1051C000EFFA804601F026F804460CB90020C3E748
:1051D00000BF20782C28E4D020785D2801D1601C05
:1051E000BAE7024804600020B6E7000098040020F7
:1051F000014600220878302806DB0878392803DCCD
:1052000008783038024415E00878412806DB087831
:10521000462803DC0878373802440BE00878612818
:1052200006DB0878662803DC08785738024401E07A
:10523000002070471201491C0878302806DB0878E6
:10524000392803DC08783038024415E00878412812
:1052500006DB0878462803DC0878373802440BE080
:105260000878612806DB0878662803DC0878573858
:10527000024401E00020DCE71201491C08783028D4
:1052800006DB0878392803DC08783038024415E05A
:105290000878412806DB0878462803DC0878373888
:1052A00002440BE00878612806DB0878662803DCF6
:1052B00008785738024401E00020BAE71201491C7F
:1052C0000878302806DB0878392803DC087830387D
:1052D000024415E00878412806DB0878462803DCFC
:1052E0000878373802440BE00878612806DB087834
:1052F000662803DC08785738024401E0002098E76C
:10530000104696E72DE9F04F8BB083468A46002081
:10531000044605460026674F0021884689460990C5
:10532000012008909AF800002D2802D1624F0AF15E
:10533000010A9AF80000302801D10AF1010A9AF80E
:105340000000312822DB9AF8000039281EDC00BF5B
:105350001AF8011BA1F1300001F0FBF90022574BB4
:10536000CDE906012046294601F046FACDE90401BF
:10537000DDE9062300F0AAFF04460D469AF8000076
:10538000302803DB9AF800003928E1DD9AF80000A4
:105390002E2830D19AF8010030282CDB9AF8010031
:1053A000392828DC0AF1010A00BF1AF8011BA1F113
:1053B000300001F0CEF90022404BCDE90601204635
:1053C000294601F019FACDE90401DDE9062300F0D0
:1053D0007DFF04460D460022364B4046494601F00B
:1053E00031FC804689469AF80000302803DB9AF8A1
:1053F00000003928D9DD9AF80000652803D09AF812
:105400000000452823D10AF1010A9AF800002B2850
:1054100002D10AF1010A08E09AF800002D2804D10F
:105420004FF0FF3008900AF1010A08E01AF8010B6A
:105430003038099901EB810100EB410009909AF89D
:105440000000302803DB9AF800003928EEDDDDE9A2
:10545000082101FB02F001F07CF942464B46CDE900
:10546000000100F033FF02460B46CDE902010020A7
:10547000124900F0F3F922462B46CDE906013046E9
:10548000394601F0B9F9CDE90401DDE9062301F05F
:10549000B3F904460D46CBE906452046294601F0FE
:1054A00029F9CBF814000320CBF80C0050460BB0C0
:1054B000BDE8F08F0000F03F0000F0BF0000244086
:1054C0002DE9F04706460C4620787B2804D040485A
:1054D00004600020BDE8F0870620F060601C00F04A
:1054E00099FE044620787D2801D1601CF2E7FFF781
:1054F00015FC0546B060B06808B90020EAE7204610
:1055000000F088FE80464146284600F063F80746D2
:1055100000F080FE04460CB90020DBE72869286211
:105520000020286120783A2803D029480460002010
:10553000D0E7601C00F06EFE80464146284600F031
:105540002FF9074600F066FE04460CB90020C1E7BB
:1055500031E0FFF7E3FB070000D1BBE72F607D6080
:105560003D46601C00F056FE81464946284600F044
:1055700031F8804600F04EFE04460CB90020A9E741
:10558000286928620020286120783A2803D0104832
:10559000046000209EE7601C00F03CFE8146494606
:1055A000284600F0FDF8804600F034FE04460CB9B1
:1055B00000208FE700BF20782C28CAD020787D28D3
:1055C00001D1601C86E702480460002082E70000E9
:1055D000980400202DE9F05F8346884608F1010415
:1055E000002798F80000222805D06A48C0F80080FB
:1055F0000020BDE8F09F04E014F8011B5C2900D1F5
:10560000641C2078222804D0207810B1781C070070
:10561000F2D1781C6049096888478146B9F1000FCA
:1056200001D10020E5E708F101044D469EE0207815
:105630005C2804D014F8010B05F8010B96E0641CFB
:105640002078722818D006DC622809D066280BD092
:105650006E287DD10CE0742812D07528F9D113E0A2
:10566000082005F8010B7FE00C2005F8010B7BE01A
:105670000A2005F8010B77E00D2005F8010B73E017
:10568000092005F8010B6FE0601CFFF7B1FD06462D
:10569000241DB6F55C4F02D3B6F5604F00D306B9B2
:1056A00062E0B6F5584F1CD3B6F55C4F19D260785E
:1056B0005C2802D1A078752800D055E0E01CFFF7E7
:1056C00097FD8246A41DBAF55C4F02D3BAF5604F30
:1056D00000D349E0C6F30901504661F39F2000F56D
:1056E00080360427802E01D2012708E0B6F5006F2E
:1056F00001D2022703E0B6F5803F00D203273D44E4
:10570000012F20D0022F15D0032F0AD0042F24D12F
:1057100006F0BF0040F08001681E05460170B60922
:1057200000BF06F0BF0040F08001681E0546017012
:10573000B60900BF06F0BF0040F08001681E0546B4
:105740000170B60900BF1548C05D3043C1B200E02A
:1057500006E0681E0546017000BF00BF3D4403E03F
:10576000207805F8010B00BF00BF641C20782228B8
:1057700003D0207800287FF45AAF002028702078CA
:10578000222800D1641CCBF810900420CBF80C0028
:1057900020462EE7980400209C0400200475000891
:1057A00070B505460C460CB9002070BD042224A13A
:1057B0002046FBF72DF818B90220E860201DF4E719
:1057C000052221A12046FBF723F818B90020E86044
:1057D000601DEAE704221EA12046FBF719F820B954
:1057E0000120E8606861201DDFE72078222804D1CD
:1057F00021462846FFF7EEFED7E720782D2805D072
:105800002078302807DB2078392804DC2146284618
:10581000FFF778FDC9E720785B2804D121462846A8
:10582000FFF790FCC1E720787B2804D12146284669
:10583000FFF746FEB9E7084804600020B5E700001E
:105840006E756C6C0000000066616C736500000092
:105850007472756500000000980400202DE9F04D79
:1058600016460F4694B01C4621F0004123F000423A
:10587000002814BF4FF0010C4FF0000C0CEB470C4C
:10588000FE4B0CEB03054FEA630C65452BD335004B
:1058900018BF012505EB44051D44F94B9D4222D359
:1058A000F84B52EA060C02D09F4205D148B914B019
:1058B00000201946BDE8F08D002808BF4FF0000C0D
:1058C00001D04FF0010C0CEB470313F5001F0AD871
:1058D000002E14BF4FF0010C4FF0000C0CEB4403F2
:1058E00013F5001F07D914B0324623463946BDE8E8
:1058F000F04DFFF789B8DFF890834FF0000A002FD2
:10590000B8BF424523DAE14B9A42A8BF4FF0020AE2
:105910001DDADC4B93421ADCDD4B03EB2253142BD4
:1059200008DDC3F1340C26FA0CF303FA0CFCB44581
:105930000DD108E05EB9C3F1140C22FA0CF303FA9E
:105940000CFC944503D103F00103C3F1020A51EAB0
:1059500000031BD1002C19DA002F18BFBAF1020F77
:1059600002D0BAF1010F07D00220FBF7C2F814B041
:10597000BDE8F04DFFF740B80220FBF7BAF8FFF79B
:105980003BF814B081F00041BDE8F08D330070D1D8
:10599000424525D107F1804212F5801201BF00284F
:1059A0000020B84914B008BFBDE8F08DB548884262
:1059B00007DC002CA1BF1846214614B0BDE8F08DCD
:1059C00007E0002CBFBF184684F0004114B0BDE8CA
:1059D000F08DB0497944D1E9000114B0BDE8F08DF3
:1059E000DFF8A0C262452AD1002C24DA39B1414542
:1059F00017D1002804BF002002461CD106E040B1A8
:105A00000220FBF776F8FFF707F80A46394600F060
:105A1000D7BA9D4A394614B0002062F31E01BDE892
:105A2000F08D08DA14B03B46BDE8F04D0246002088
:105A3000614600F007BD14B03946BDE8F08D414520
:105A400017DAB4F1804F0CD0A4F10053B3F1FF5337
:105A50000FD13B1E0DDB14B01946BDE8F04D00F030
:105A6000E2BB3B4614B00246BDE8F04D194600F0DB
:105A7000C3BE050027F000433AD1E1B1414537D11B
:105A8000002F06DD002CA1BF0020414614B0BDE868
:105A9000F08D002F01DD002C1FDB002F16DA002C0B
:105AA00014DBBAF1010F4FF0000014BF76497A49B8
:105AB00014B0BDE8F08DBAF1020F18BF002F0CD062
:105AC000BAF1010F09D1002F07DA0BE0002FB8BFA0
:105AD000002C0DDABAF1010F04D0002014B00146F9
